:0200000280007C
:1000000050CD07203D260800392608003926080073
:1000100039260800392608003926080000000000AB
:10002000000000000000000000000000750808004B
:100030003926080000000000F10808002D0908001A
:100040003926080039260800392608003926080014
:100050003926080039260800392608003926080004
:10006000392608003926080000000000A9240800ED
:10007000BD240800D1240800E52408000000000089
:1000800000000000F10108003926080039260800A8
:1000900039260800392608003926080039260800C4
:1000A000392608000000000039260800392608001B
:1000B00039260800392608003926080039260800A4
:1000C0003926080039260800392608003926080094
:1000D0003926080039260800392608003926080084
:1000E0003926080039260800392608003926080074
:1000F0003926080010B5054C237833B9044B13B1E9
:100100000448AFF300800123237010BDE8090720E5
:1001100000000000CC910800084B10B51BB1084846
:100120000849AFF300800848036803B910BD074BC6
:10013000002BFBD0BDE81040184700BF00000000B6
:10014000CC910800EC090720CC91080000000000C9
:1001500038B525200E4B98470E4C20460E490F4AC5
:1001600000230F4DA847204600210A460B460D4D9F
:10017000A847204610210C4B984720460A210B4BDC
:100180009847204600210A46094B984738BD00BFD2
:10019000E525080000000C40007A030A002D31011B
:1001A000B11D0800051E0800E51D08002D1E0800F1
:1001B000F51D0800A8B92DE9F0410C469046002A2B
:1001C0000ADD8F18084E094D306821462B68984784
:1001D0000134BC42F8D101E04FF000084046BDE8D0
:1001E000F0814FF0FF30704730AD072028AD072079
:1001F00000B583B011480DF107010122104B98475B
:1002000072B6BFF35F8F00220E4B1A700E4B1B7835
:100210009DF807100D4AD1549B2B03D100220A4BA5
:100220001A7002E00133084A13700122054B1A705C
:10023000BFF35F8F62B603B05DF804FB0080094036
:10024000691E080038010720A00A0720040A0720B9
:1002500008B5024602480349034B984708BD00BF52
:1002600000400940A40A0720D520080030B585B019
:100270002420154B984728BB144B0193002402946B
:10028000134B0393134D284601A9134B9847134969
:100290000C818C720B234B6040F2E7330B61CC6016
:1002A0000C6028460E4B98470E484FF080514FF493
:1002B00080320D4B9847284621460C4B98472046E4
:1002C0000B4B984705B030BDE5250800583E0F00A0
:1002D00000BD010500400940811F0800A40A072055
:1002E000CD1F080000100E4041220800F920080030
:1002F000510208002DE9F04784B0204BB3F800907C
:100300001F4B98470390002300930193ADF80830EA
:100310001C4DDFF89080DFF890A0286800214FF096
:10032000FF320B46C04718B3BAF8000069460A22EC
:10033000154FB8476846154CA047154E3046A047A4
:10034000144B188869460A22B8476846A0473046C9
:10035000A047114B188869460A22B8476846A0474B
:100360003046A047286800210A460B460B4CA047A0
:1003700003A849460A4B9847CFE700BF34AD072092
:100380001D1308004001072025310800CD3008006A
:10039000508D08008AAC072088AC0720F10C0800BB
:1003A00061150800A10E0800F0AC07202DE9F04F00
:1003B00087B0454B9847059000230293DFF878B14A
:1003C000424F9A465846424B98475846B84710F015
:1003D000807FFAD058463F4B98473F4B83FB002322
:1003E000C217C2EBA3033D4AD15C1A4452788A1A61
:1003F00003EB8303A0EB430303FB0218384B1C8879
:10040000C8EB0404A244374B1B680193364BB3F886
:100410000090364E2046B047354D0199A8470390CD
:10042000344BA3FB092080090AFB00F0B047324B94
:100430001968324B984701460198A847014603982E
:100440002F4B98470390029BE01A90FBF9F0B047BE
:100450002C4B1968A84701460198A8470146039804
:10046000274B984705462849284B984730B92846D6
:100470000021274B984710B1002500E0224D284667
:10048000244B9847244B9847244B186800214FF081
:10049000FF320B46224EB04780B1224BA3F80080BA
:1004A000214B1C8028461B4B9847204B18801B4B28
:1004B000186800210A460B461D4DA84705A83C2197
:1004C0001C4B984702947DE71D130800391E080055
:1004D000251E0800351E0800676666668CAC07207E
:1004E00044AD072038AD072034AD07209D2B080010
:1004F000452C0800D34D62103CAD0720AD2D0800FF
:10050000352A080040AD072000C07944BD2F0800FF
:10051000812F0800D12F0800510208004001072058
:10052000A10E0800F0AC07208AAC072088AC072099
:10053000F10C08006115080000000C40F0B583B014
:1005400004460D46002301931F4B984207D11F46D6
:100550001E4E38462946B0470028FAD119E01C4BF8
:10056000984209D11F461B4E384601A9B0470028C2
:10057000FAD1019B2B7019E0174B984209D11E4606
:10058000144C304601A9A0470028FAD1019B2B70DA
:1005900018E0124B9C4209D11E460E4C304601A970
:1005A000A0470028FAD1019B2B700BE00C4B9C421A
:1005B00008D11E46074C304601A9A0470028FAD1B1
:1005C000019B2B7003B0F0BD00080E4049210800CC
:1005D00000800940511E080000C0094000000A4088
:1005E00000400A4070B50C461E4B984208D11E468A
:1005F0001D4D30462146A8470028FAD1012070BD84
:100600001A4B984208D11E46194D30462146A8473C
:100610000028FAD1012070BD164B984208D11E4621
:10062000134D30462146A8470028FAD1012070BD5D
:10063000114B984208D11E460D4D30462146A84721
:100640000028FAD1012070BD0C4B984208D11E46FB
:10065000074D30462146A8470028FAD1012070BD39
:10066000002070BD00080E403921080000800940BC
:100670003D1E080000C0094000000A4000400A403A
:10068000F0B585B0002301930293ADF80C301B4CFC
:1006900004F164071A4E1B4D01A8B04701A8A847F2
:1006A00004F8010FBC42F7D101A8154DA84701A8D5
:1006B000154CA047154EB047154B186001A8A84728
:1006C00001A8A047B047134B186001A8A84701A88C
:1006D000A047B047104B186001A8A84701A8A04741
:1006E0000E4EB0470E4B188001A8A84701A8A0479E
:1006F000B0470C4B188005B0F0BD00BF8BAC072095
:100700006D300800193008001130080089290800F0
:1007100038AD07203CAD072040AD0720492908002F
:1007200044AD072034AD072030B585B00820124D08
:10073000A847124C124B1C60124A134B1A60134A02
:10074000134B1A60134B01934FF4E13302934FF4B0
:10075000006303930820A847204601A90E4B984741
:100760000E4D2B68986800210D4CA0472B685868E7
:100770000021A04705B030BDE525080000080E4067
:1007800030AD0720E50508002CAD07203D05080029
:1007900028AD072000BD01050121080070050720D4
:1007A000E532080000F1080343604FF0FF32826039
:1007B000C360036100230360704700BF002303612F
:1007C000704700BF43685A684A6042688A605A6846
:1007D00091605960416008610368013303607047AC
:1007E00010B40C68B4F1FF3F01D103690AE000F1D5
:1007F0000803C2681268944204D35B685A6812689E
:100800009442FAD25A684A6091608B6059600861DC
:100810000368013303605DF8044B704743688268E6
:100820009A60836842685A6003695A68824204BFCA
:1008300082685A60002202611A68013A1A601868D8
:10084000704700BF03480068006880F3088862B6FC
:1008500000DF00BF08ED00E04FF0807340F8043C7B
:1008600040F8081C002340F80C3C40F8202C40388D
:10087000704700BF064B19680868B0E8F00F80F3B6
:1008800009884FF0000080F311884EF00D0E70477C
:10089000A8AB07204FF08052014B1A60704700BF91
:1008A00004ED00E0EFF311804FF0A00181F3118817
:1008B0007047002008B5034B9847034A136801337B
:1008C000136008BDA50808002C01072080F31188DB
:1008D000704700BF08B5044A1368013B136013B9A1
:1008E0000020024B984708BD2C010720CD080800C6
:1008F000EFF309800C4B1A6820E9F00F10602DE926
:1009000008404FF0A00080F3118800F0B3FE4FF0D4
:10091000000080F31188BDE8084019680868B0E855
:10092000F00F80F309887047A8AB072008B54FF097
:100930008052054B1A60054B9847054B984700209D
:10094000044B984708BD00BF04ED00E0A50808006F
:100950003D130800CD080800034A044B1A60072223
:10096000043B1A60704700BF1F48010014E000E01C
:1009700010B5094B1A6842F470021A601A6842F006
:1009800070421A60054B98470024054B1C60054BCC
:100990009847204610BD00BF20ED00E0590908002F
:1009A0002C01072045080800134A00E01A46136886
:1009B0008342FBD330B4114654681519854203D1E4
:1009C0006868044454601046426884189C420CD104
:1009D0000A4B1B689C4206D063681A4442600B684D
:1009E0001B68036002E0046000E00360814218BFFE
:1009F000086030BC704700BFD4AA0720D0AA0720E7
:100A000038B50446294B9847294B1B689BB9294A9E
:100A1000294B13600021516049F6F0729818244D5B
:100A2000286049F6F475595199505A601860234A64
:100A30001368103B1360002C2ED004F1100212F04A
:100A4000070F1CBF22F007020832511E49F6FE7341
:100A5000994223D817490C6801E021461C46636877
:100A60009A4202D92368002BF7D1114B1B689C4294
:100A700016D00D68103523680B6063689B1A202B15
:100A800004D9A018436062600D4B98470B4A136865
:100A900061685B1A136004E0002502E0002500E0B5
:100AA0000025084B9847284638BD00BF0D130800A5
:100AB000D0AA0720D4AA0720D00A07203001072097
:100AC000A90908005D14080080B110B50446084B60
:100AD0009847084A116854F80C3C0B441360A4F181
:100AE0001000054B9847054B984710BD704700BF55
:100AF0000D13080030010720A90908005D14080043
:100B000010B50446036C3BB903681BBB4068134B2C
:100B10009847002363601DE06AB980681A46104B4D
:100B20009847A268236C1344A3606268934211D370
:100B30002368A3600EE0C0681A46094B9847236CEF
:100B40005B42E2681A44E26021688A4202D262682B
:100B50001344E360A36B0133A36310BDA519080020
:100B60002931080038B50346006858B11A6CDC68B2
:100B70001444DC605D68AC4228BFD8600846D96880
:100B8000014B984738BD00BF29310800F8B504462D
:100B90001E4B9847A36C002B13DD636A1BB910E052
:100BA000636A23B90DE004F12406194D194F30464C
:100BB000A84700B1B847A36C013BA364A36C002B0A
:100BC000EEDC4FF0FF33A364134B98470F4B98476D
:100BD000636C002B13DD23691BB910E0236923B973
:100BE0000DE004F110060A4D0A4F3046A84700B147
:100BF000B847636C013B6364636C002BEEDC4FF021
:100C0000FF336364044B9847F8BD00BFB508080084
:100C1000BD170800ED180800D508080038B518B948
:100C2000174B984700BFFDE70D460446154B984704
:100C30002268216CE36B03FB01F3D0186060002095
:100C4000A063A2605B1A1344E3604FF0FF33636458
:100C5000A36455B923697BB104F110000A4B98478E
:100C6000012809D1094B984706E004F11000084D0E
:100C7000A84704F12400A847064B9847012038BD37
:100C8000A5080800B5080800BD1708009508080069
:100C9000A5070800D5080800F8B5A0B10D4617460D
:100CA000064650200E4B9847044660B105FB06F0FF
:100CB00001300B4B9847206040B92046094B9847BC
:100CC00001E000BFFDE7084B9847FAE7E6632564BB
:100CD00020460121054B984784F84D702046F8BD09
:100CE000010A0800C90A0800A50808001D0C080030
:100CF0002DE9F04F85B00192009318B9384B984711
:100D000000BFFDE78A46044629B9036C2BB1344B7A
:100D1000984700BFFDE7002700E00027314EDFF8CD
:100D2000ECB0314DB047A26BE36B9A4212D2204631
:100D30005146009A2D4B9847636A3BB104F1240059
:100D40002B4B9847012801D12A4B9847264B9847AF
:100D5000012042E0019B1BB9234B984700203CE057
:100D600017B902A8D8470127A847234B9847B0478F
:100D7000636CB3F1FF3F04BF00236364A36CB3F162
:100D8000FF3F04BF0023A364A84702A801A91B4B8F
:100D90009847E0B9B047D4F83890D4F83C80A847D9
:100DA000C1450ED104F110000199154B984720461A
:100DB000144B9847144B98470028B3D10D4B9847D4
:100DC000B0E720460F4B98470F4B9847AAE72046BD
:100DD0000C4B98470C4B9847002005B0BDE8F08FAE
:100DE000A5080800B5080800D5080800010B080090
:100DF000BD170800950808000D13080069180800C1
:100E0000191708008D0B08005D1408004118080030
:100E10002DE9F04118B91E4B984700BFFDE70E467B
:100E200015469846044629B9036C1BB1184B9847E0
:100E300000BFFDE7164B98470746A26BE36B9A424B
:100E400018D2204631464246124B9847A36CB3F164
:100E5000FF3F0AD1636A7BB104F124000E4B98472F
:100E600060B16DB101242C600BE0A36C0133A3646D
:100E7000012406E0002404E0012402E0012400E053
:100E800001243846054B98472046BDE8F08100BF55
:100E9000A5080800010B0800BD170800CD080800D0
:100EA0002DE9F04F85B0019218B9464B984700BF25
:100EB000FDE789469A46044629B9036C2BB1414B9C
:100EC000984700BFFDE7002700E000273E4EDFF80F
:100ED00028B13E4DB047A36B43B3E5682046494671
:100EE0003B4B9847BAF1000F12D1A36B013BA363B0
:100EF000236813B9374B98476060236993B104F1B5
:100F00001000354B984701280CD1344B984709E025
:100F1000E560636A33B104F124002F4B984708B1B0
:100F20002E4B9847294B9847012048E0019B1BB95D
:100F3000264B9847002042E017B902A8D84701275E
:100F4000A847274B9847B047636CB3F1FF3F04BFF6
:100F500000236364A36CB3F1FF3F04BF0023A364C9
:100F6000A84702A801A91F4B984710BBB047D4F867
:100F70003880A847B8F1000F15D1236823B9B047CE
:100F80006068194B9847A84704F124000199174B52
:100F900098472046164B9847164B9847002899D1FA
:100FA0000E4B984796E72046114B9847114B9847B0
:100FB00090E720460E4B98470E4B9847002005B00F
:100FC000BDE8F08FA5080800B5080800D50808009E
:100FD000650B0800F9180800BD17080095080800FF
:100FE0000D130800691808002519080019170800D2
:100FF0008D0B08005D1408004118080038B5044640
:101000000D460D4B9847636CB3F1FF3F04BF0023BF
:101010006364A36CB3F1FF3F04BF0023A364074BD9
:101020009847A36B23B904F124002946044B984741
:101030002046044B984738BDB5080800D50808007D
:10104000791708008D0B080010B504460E4B1B687D
:1010500058600E4B1B68984207D20D4B18680A4B1C
:10106000196804310B4B984710BD0B4B1868064BA1
:1010700019680431074B9847084B1B689C423CBFDA
:10108000064B1C6010BD00BFA8AB0720C4AB0720F7
:10109000C8AB0720E1070800F4AA072034010720A5
:1010A0002DE9F04F83B00C9FDDF834800E9E019047
:1010B00018B9624B984700BFFDE7894615469B4625
:1010C000042F03D95D4B984700BFFDE74C205C4BD4
:1010D00098470446002800F0AB80002E40F0A58021
:1010E000A800574B9847206318B92046554B98479E
:1010F0009EE0A521AA00544B984705F18045013D8B
:10110000236B03EB850323F0070504F13400494604
:101110000A224E4B9847002384F83D303E46042F68
:1011200028BF0426E662A66404F104094846DFF8F5
:101130006CA1D04704F11800D0472461C6F1050620
:10114000A6616462284601995A46414B984720603F
:1011500010F0070F03D0394B984700BFFDE7B8F1F7
:10116000000F01D0C8F800403A4B98473A4A13683C
:1011700001331360394B1B680BBB384B1C60136881
:10118000012B26D1364D05F16408364E2846B0476E
:1011900014354545FAD1DFF808814046314DA8475E
:1011A000314E3046A8473148A8473148A847314812
:1011B000A847314BC3F80080304B1E6009E0304B2C
:1011C0001B6833B9254B1B68DB6A9F4224BF234B46
:1011D0001C60E06A2B4B1B68984284BF294B186047
:1011E000294A1368236401331360284B1B68984213
:1011F00084BF264B186000EB8000194B03EB800086
:101200004946234B9847234B98471D4B1B6843B1D6
:10121000124B1B68DB6A9F4205D91F4B9847012080
:1012200008E0012006E0012004E00663304660E7A4
:101230004FF0FF3003B0BDE8F08F00BFA5080800F5
:10124000010A0800C90A080015320800DD34080048
:1012500059080800B5080800D0AB0720A8AB072044
:101260002CAB0720A507080014AB0720ACAB072068
:1012700090AB0720E0AA0720F4AA0720C8AB0720FC
:10128000F8AA0720D8AB0720CCAB072028AB072053
:10129000C5070800D508080095080800BD07080024
:1012A00000AB072010B584B0002300930193029394
:1012B00003930E480E4982220E4CA04701280ED1FE
:1012C0000D4B984701280AD10C4B984701220C4B33
:1012D0001A6000220B4B1A600B4B984704E018B9B8
:1012E000064B984700BFFDE704B010BDF11508009C
:1012F000548D0800A11008009D1A0800A5080800D8
:10130000F8AA0720C4AB072071090800024A136835
:1013100001331360704700BFC0AB072010B5044B0A
:101320009847044B1C68044B9847204610BD00BFEB
:10133000B5080800C4AB0720D50808002DE9F04126
:101340003A4B1B68002B6BD1394B1A6801321A607B
:101350001B6803BB374B1B681B681BB1364B984798
:1013600000BFFDE7334B1968344A106818601160FC
:1013700033490A6801320A601B681B6823B94FF0C1
:10138000FF32304B1A6006E02A4B1B68DB68DB68D3
:101390005A682C4B1A60264B1A682A4B1B689A42D3
:1013A00042D3244B1B681B686BB1224B1B68DB6864
:1013B000DC6863681E4A1268934213D8224E234F9A
:1013C000DFF8948012E04FF0FF321E4B1A60BDE848
:1013D000F081184B1B68DB68DC686368144A12688C
:1013E000934203D9174A1360BDE8F081251D2846B2
:1013F000B047A36A13B104F11800B047E06A3B6834
:10140000984288BF386000EB800008EB80002946D6
:101410000F4B9847074B1B681B68002BD9D1D2E7AD
:101420000C4A136801331360BDE8F081C0AB07209C
:10143000C4AB0720F4AA0720A5080800C8AB072002
:10144000A4AB0720340107201D08080028AB0720A3
:10145000C5070800DCAA07202CAB07202DE9F843BC
:10146000304B1B681BB9304B984700BFFDE72F4B33
:1014700098472C4B1A68013A1A601B68002B49D117
:101480002B4B1B6803BB002447E0D8F80C30DC680A
:1014900004F11800B84704F104094846B847E06A67
:1014A0003368984288BF306000EB8000214B03EB2B
:1014B00080004946204B9847204B1B68E26ADB6A54
:1014C0009A4228BF012504E00025DFF890801C4FD8
:1014D0001C4ED8F80030002BD7D11B4B1B6863B1D2
:1014E000194B1B687BB1194D174CA8472368013B6A
:1014F00023602368002BF8D105E0012D03D0144BA5
:101500001B68012B08D10022114B1A60114B984720
:10151000012402E0002400E000240F4B98472046FD
:10152000BDE8F883C0AB0720A5080800B50808008F
:10153000D0AB07202CAB0720C5070800A8AB0720BD
:101540001D08080028AB0720DCAA07203D1308006F
:10155000D4AB072095080800D5080800ACAB0720DD
:1015600038B518B91A4B984700BFFDE70C46054639
:1015700019B9174B984700BFFDE7164B98472B68E2
:101580001C44154A1268934207D9A3421CD9124B36
:101590001B682C609C420FD906E0A34212D80E4B68
:1015A0001B689C420ED80FE00C4B186804300C4BA3
:1015B000984720460B4B98470B4B984730B90B4B3D
:1015C000984738BD2C60EFE72C60F5E738BD00BFC9
:1015D000A50808000D130800C4AB0720A8AB07201E
:1015E0001D080800491008005D140800950808004F
:1015F00080B5154D154EDFF87480154F19E0C047C2
:101600003468B847ACB1134B9847F368DC68201DC9
:10161000114B9847114A1368013B13602B68013B3B
:101620002B600F4B9847206BDFF84490C84720464B
:10163000C8472B68002BE2D10A4B1B68012BF8D955
:10164000094B9847D7E700BFFCAA072090AB0720BB
:101650005D140800B50808001D080800D0AB07207D
:10166000D50808002CAB0720950808000D130800CA
:10167000C90A080010B5224B1B686BB9214B1B68C7
:1016800003EB83039B00204AD358CBB91D4B1B6847
:1016900043B11C4A1C4909E001221C4B1A6010BDD1
:1016A00013681BB91A4B984700BFFDE71368013B4D
:1016B0001360136803EB830351F82330002BEFD042
:1016C000104B1B68104A9900C81802EB8000446850
:1016D0006468446002460832944206D1606803EBB5
:1016E0008301094A02EB8102506003EB8303064A3F
:1016F00002EB83035B68DA68064B1A6010BD00BF1B
:10170000C0AB072028AB07202CAB0720D4AB0720A9
:10171000A5080800A8AB072038B518B90E4B9847A4
:1017200000BFFDE70C460D4D296818310C4B98475A
:10173000286804300B4B9847B4F1FF3F05D1296866
:1017400009480431094B984738BD094B18682044B3
:10175000084B984738BD00BFA5080800A8AB072074
:10176000E10708001D080800E0AA0720C5070800D7
:10177000C4AB07204910080038B518B9094B984781
:1017800000BFFDE70D46084C21681831074B98470C
:1017900020680430064B9847064B18682844064BCF
:1017A000984738BDA5080800A8AB0720C507080062
:1017B0001D080800C4AB07204910080038B5C368ED
:1017C000DC681CB9164B984700BFFDE704F118050B
:1017D0002846144B9847144B1B689BB9251D284677
:1017E000104B9847E06A114B1B68984284BF0F4B1F
:1017F000186000EB80000E4B03EB800029460D4B78
:10180000984703E00C4829460A4B98470B4B1B6846
:10181000E06ADB6A984234BF0020012038BD00BF77
:10182000A50808001D080800C0AB072028AB07204A
:101830002CAB0720C5070800ACAB0720A8AB0720DE
:1018400008B518B9054B984700BFFDE7044A126870
:101850000260044A1268426008BD00BFA508080083
:10186000A4AB0720C4AB072038B518B9194B98476B
:1018700000BFFDE70D46044619B9164B984700BF57
:10188000FDE7154B98472B68B3F1FF3F18D0134A7B
:1018900012682168914204D0114A1268616891422D
:1018A00010D90F4A11686068091A8B420CD9126866
:1018B000121A9B1A2B6020460A4B9847002404E01A
:1018C000002402E0012400E00124074B9847204651
:1018D00038BD00BFA5080800B5080800A4AB072064
:1018E000C4AB072041180800D50808000122014BAD
:1018F0001A607047D4AB0720014B1868704700BFCF
:10190000A8AB0720054B1B6833B1054B1B68002BA8
:101910000CBF01200220704700207047F8AA072062
:10192000C0AB0720002831D038B5C36A1849096810
:10193000C96A8B4229D216490968C96AC1F10501F1
:10194000816103EB8303134901EB830341699942EE
:1019500017D10546041D20460F4B98470C4B1B68BA
:10196000D86AE8620D4B1B68984284BF0B4B186025
:1019700000EB8000074B03EB80002146084B9847A3
:1019800038BD034B1B68DB6AC36238BD704700BFBC
:10199000A8AB07202CAB07201D08080028AB0720A8
:1019A000C5070800E8B138B5C16A826C914217D00A
:1019B0000446051D28460B4B9847A06CE062C0F119
:1019C0000503A361084B1B68984284BF064B18604F
:1019D00000EB8000054B03EB80002946044B984741
:1019E00038BD70471D08080028AB07202CAB072026
:1019F000C507080010B504464160206191420AD82D
:101A0000D21A83699A4211D20A4B1868211D0A4BD7
:101A10009847002010BD9A4201D2994208D2074B44
:101A20001868211D044B9847002010BD012010BDEF
:101A3000012010BD10AC0720E1070800DCAB072037
:101A400070B50D4B98470D4B1B688BB90C4D284654
:101A50000C4EB0470C4C2046B0470C4B1D600C4B55
:101A60001C6005200C2100220A4B9847034B18608C
:101A7000094B984770BD00BFB50808000CAC0720A3
:101A8000E0AB0720A5070800F4AB0720DCAB07207C
:101A900010AC0720990C0800D508080010B584B0D8
:101AA0000B4B98470B4B1B6863B104230093002337
:101AB000019302930393084808494FF48272084C3B
:101AC000A04718B9074B984700BFFDE704B010BD09
:101AD000411A08000CAC0720F11B0800608D0800BB
:101AE000A1100800A508080030B585B00F4C256886
:101AF000C5B10191029203906BB90D4B9847012833
:101B00000A4B186801A907BF089A00230022134650
:101B1000084CA04707E0284601A91A460023064CB6
:101B2000A04700E0002005B030BD00BF0CAC07208E
:101B300005190800F10C0800110E08002DE9F04706
:101B400082B08146224B98478046224B1B689842C0
:101B500034D224E0DA68D2F800A0DB68DC68251D06
:101B60002846B847636A20469847E369012B18D195
:101B7000A3695344534506D96360246130682946FC
:101B8000154B98470DE00023009320461946524616
:101B9000124CA04728B9124B984700BFFDE7114EE1
:101BA000114F33681A68002AD4D1104A10680D49C1
:101BB000086013600123C9F8003002E00023C9F86F
:101BC0000030044BC3F80080404602B0BDE8F08707
:101BD0001D13080008AC0720E1070800E91A0800F7
:101BE000A5080800DCAB07201D08080010AC072082
:101BF0002DE9F04387B04D4DDFF860814C4B1B68F9
:101C00001A68002A00F08780DB681E68494B9847F5
:101C100003A8494B98470746039B002B30D18642C7
:101C200024D8464B9847424B1B68DB68DC68201D74
:101C3000C047E369012B14D1A169204631443A46DB
:101C400033463F4FB84701280BD10023009320466D
:101C5000194632463B4EB04718B93B4B984700BF38
:101C6000FDE7636A204698470CE000262868F11BD0
:101C7000364B9847314B984720B9354B984701E090
:101C80002E4B984702A82C4B98470746314EDFF859
:101C9000B09038E0059C1CB163690BB1201DC047B2
:101CA000039B022B1FD0032B2AD0002B2BD1049B8C
:101CB000A169204619443A46C847012823D1636ADE
:101CC00020469847E369012B1DD1A26900230093A8
:101CD00020461946049C22441A4CA04798B91A4B36
:101CE000984700BFFDE70499A16119B9164B9847C1
:101CF00000BFFDE7204639443A463B46C84702E06C
:101D00002046154B9847286803A900221346B04780
:101D10000028BFD172E7074B984703A8064B9847A6
:101D20000746039B002BA0D0AAE700BF0CAC0720FE
:101D3000DCAB07200D1308003D1B08005D140800F4
:101D4000F5190800E91A0800A5080800FD0F0800A9
:101D500095080800A10E0800C90A08001D0808001F
:101D60000138022818D82DE9F0410E46144682B1F8
:101D70000D46DFF838800C4FD8F8000015F8011B2D
:101D80003B68984700280ADBA81B013CF4D1BDE85A
:101D9000F0810020BDE8F0814FF0FF3070474FF038
:101DA000FF30BDE8F08100BF2CAD072030AD07202B
:101DB00030B4012404600024446040F20225C0F8DD
:101DC0002051C0F80441C0F8144145682B4352002B
:101DD000B1FBF2F14A1E120292B213434360204655
:101DE00030BC7047436823F01003436043681943D5
:101DF0004160704743681943D201D2B21143416038
:101E0000704700BF10B444682243090601F07061B6
:101E10000A431B0703F04053134343605DF8044B30
:101E2000704700BF02230360704700BF01238B404F
:101E300003617047006A7047006B7047436913F095
:101E4000020F1DBFC1F30801C161002001207047CE
:101E5000436913F0010F05D08369C3F308030B60D6
:101E60000020704701207047002A4ED02DE9F04F26
:101E700085B006460D461746DFF8A4A0DFF8A4900B
:101E8000CDF800A0DFF8A0B0214CCDF804B00023BD
:101E90000393564505D100982946C8470028FAD132
:101EA00015E05E4507D1019803A9A0470028FAD1A3
:101EB000039B2B7017E0174B9E4208D19846404673
:101EC00003A9A0470028FAD1039B2B7016E0124B00
:101ED0009E4208D19846404603A9A0470028FAD15F
:101EE000039B2B700AE00D4B9E4207D1984640465B
:101EF00003A9A0470028FAD1039B2B700135013FAD
:101F0000C5D1002005B0BDE8F08F0020704700BFAC
:101F1000511E080000C0094000000A4000400A406D
:101F200000080E404921080000800940F0B48CB040
:101F300007460E4601AC114D0FCD0FC40FCD0FC497
:101F400095E8070084E8070001AA002052F8043B46
:101F5000B6FBF3F3B3FBF7F3B3F5807F05D901309C
:101F60000B28F3D14FF6FF7005E00A2894BF43EA2F
:101F700000204FF6FF700CB0F0BC7047688D080071
:101F800070B506460C46086840B189680E4B984704
:101F900005464FF6FF73984201D10EE000256068B8
:101FA00040B1A168084B98474FF6FF73984207D09D
:101FB00045EA00453560002070BD4FF6FF7070BDEA
:101FC0004FF6FF7070BD00BF2D1F080070B40B6886
:101FD0008A8A4C6804F00F0422430C8922438C7ACD
:101FE00042EA44228C7D42EA0442CC7D42EA4442E9
:101FF0000C7E42EA844200EB4314C4F80022CA6813
:10200000C4F804220A69C4F80C228A7D3AB18C8B88
:102010004A8B42EA044200EB4314C4F81822846C51
:102020004FF001129A40D24302EA0405CC7F04FA31
:1020300003F68C7F9C4044EA06442C438464446C41
:10204000144091F8212002FA03F591F820209A40DB
:1020500042EA05422243426401229A4091F822401A
:102060001CB1046A1443046203E0046A24EA020413
:10207000046291F82440012C846E0CBF14439443F5
:10208000846691F82540012C846E0CBF44EA02421C
:1020900024EA02428266032B0BD8C46EDD00FF22C5
:1020A000AA4024EA020291F82330AB401343C366EE
:1020B0000CE0043B026FDB00FF249C4022EA040496
:1020C00091F8232002FA03F323430367002070BC36
:1020D000704700BF10B40C680B69934206D3CA6006
:1020E00000EB4410C0F80822002001E04FF6FF701A
:1020F0005DF8044B704700BF01238B40436070477D
:1021000010B4AC2303600B684A68B3FBF2F31B09FD
:102110005C1E4FF6FE7294420AD803628B684360DD
:1021200040F20223C0F8203150230360002000E079
:1021300001205DF8044B7047436913F0020F1ABF8A
:10214000C161002001207047436913F0010F1DBFDA
:1021500083690B7000200120704700BF10B50E4846
:102160000E4B984700203E210D4B98470D4CA04741
:102170000028FCD00C4B98470C4A0D4B9A620D4C32
:10218000A0470028FCD010200B4B98470B4B9847DA
:102190000148024B984710BD00BD0105A50007206E
:1021A00061250800B5250800C5250800013F0D2060
:1021B00000060E40D5250800F9240800ED26080089
:1021C00010B54FF40042164B5A600B20154CA04737
:1021D0000C20A0470D20A0470E20A0473B204FF029
:1021E0006051114CA04755204FF06051A047562038
:1021F0004FF06051A04768200C49A0475C200C4973
:10220000A0470C484FF440710B4A0C4B98472B20C9
:102210004FF00061A0472A204FF00061A04710BD99
:10222000501A0E40E5250800E52208007900002834
:1022300001000028000E0E4001000008B92308002C
:102240004264B1F1805F16D004D8C1B1B1F1006F22
:102250000AD013E0B1F1405F11D0B1F1605F0ED050
:10226000B1F1205F0AD17047036F016F0B4023EA81
:102270000203036702E0036F134303674260704782
:10228000416412F0010F14BF4166016612F00A0F9B
:1022900014BF0162416212F0020F02D0C0F8801038
:1022A00004E012F0080F18BFC0F88410416101600B
:1022B000704700BF10B44164019C0CB1416600E05E
:1022C00001660BB1016500E041650AB1016300E000
:1022D0004163016101605DF8044B7047C06C704759
:1022E000806C704770B582B00D46430903F500134A
:1022F00003F207735C0201F0F043B3F1205F30D0CA
:1023000006D8B3F1006F0AD0B3F1805F18D049E06E
:10231000B3F1405F30D0B3F1605F2DD042E000F008
:102320001F000126864020464FF0006132461F4BB9
:10233000984715F0010F14BF66662666012032E04B
:1023400000F01F000126864020464FF080513246A3
:10235000164B984715F0010F14BF666626660120DC
:1023600021E000F01F030126204606FA03F12A4669
:102370000F4B9847304616E000F01F03012605F08A
:10238000605205EA06010091204606FA03F1B2F117
:10239000605F14BF00220122C5F38003054CA047F3
:1023A000304600E0002002B070BD00BF41220800AE
:1023B00081220800B522080070B582B006460D469D
:1023C000144602F0F043B3F1205F26D006D8B3F1F3
:1023D000006F0AD0B3F1805F13D034E0B3F1405FF7
:1023E0001FD0B3F1605F1CD02DE04FF000612A4692
:1023F000164B984714F0010F14BF7566356601201F
:1024000022E04FF080512A46104B984714F0010FFC
:1024100014BF75663566012016E00D4B9847012004
:1024200012E004F0605204F00103009330462946A4
:10243000B2F1605F14BF00220122C4F38003054C97
:10244000A047012000E0002002B070BD412208003A
:1024500081220800B52208002DE9F0410446884693
:102460000E4B9847054620460D4B9847054013D024
:102470000C4C04F160062368434508D16168294289
:1024800005D0E36840469847636825EA0305B442EF
:1024900002D01034002DEED1BDE8F081DD2208001D
:1024A000E122080014AC072008B502480B21024BBA
:1024B000984708BD000E0E405924080008B5024890
:1024C0000C21024B984708BD00100E40592408000B
:1024D00008B502480D21024B984708BD00120E4076
:1024E0005924080008B502480E21024B984708BD40
:1024F00000140E4059240800184A136B23F070038F
:1025000018431063936E13F0080F03D009E0013BEA
:1025100003D11EE04FF4006310498A6E12F0080FD9
:10252000F5D00E4A136B23F0030343F00203136349
:10253000906E10F0080004D000207047013B03D1DA
:1025400009E04FF4006305498A6E12F0080FF5D0D8
:102550007047012070470120704700BF00060E4001
:1025600038B111490B6A114A1A40114B13430B62DF
:1025700070470D4A136A23F45C1323F0030343F4FA
:102580005C1343F00103090289B20B431362936E9B
:1025900013F0010FFBD0044A136A43F09B7343F41A
:1025A00080331362704700BF00060E40FCFFC8FE78
:1025B00002003701024B986E00F48030704700BF74
:1025C00000060E404FF00052014B9A62704700BF68
:1025D00000060E40024B986E00F00200704700BFEC
:1025E00000060E402C281ED81F280CD8114B9A69C3
:1025F000012383401A40934217D0012383400D4AA0
:102600001361002070470B4BD3F8082120380123B9
:1026100083401A4093420AD001238340054AC2F8FE
:1026200000310020704701207047002070470020D3
:10263000704700BF00060E40FEE700BF08B51F4B05
:102640001F4A9A4203D01F4B1C4A9A4204D31E4B86
:102650001E4A9A4210D31BE018490A1D1C4B9B1AB4
:1026600023F003030433164A134452F8040B41F8D1
:10267000040B9A42F9D1EAE7164B174AD21A22F014
:1026800003021A44043B002143F8041B9342FBD18C
:10269000124B23F0604222F07F0211498A6003F15D
:1026A0006043B3F5801F03D28B6843F000538B6007
:1026B0000C4B98470C4B9847FEE700BF00000720E3
:1026C000CC910800E80907204CAD0720E809072055
:1026D000EB090720EC0907204FAD07200000080098
:1026E00000ED00E07D300800592808003E4B1B6BD0
:1026F00003F00303032B5FD8DFE803F0020E2B2B5C
:102700003A4B5B6913F0800F14BF4FF400424FF453
:10271000FA42374B1A604FE0334B1B6A13F0807F4D
:1027200003D0344A324B1A6046E0334A304B1A60C9
:102730002D4B1B6A03F07003102B02D0202B04D00A
:102740003AE02E4A2A4B1A6036E02A4A284B1A6091
:1027500032E0254B1B6A13F0807F03D0254A244BBF
:102760001A6012E0244A224B1A601F4B1B6A03F0C6
:102770007003102B02D0202B04D006E01F4A1C4B04
:102780001A6002E01B4A1A4B1A60174B1B6B03F0CE
:102790000303022B0DD1144A936A926A1448C3F3BF
:1027A0000A41036801FB0333D2B2B3FBF2F30360C7
:1027B00002E0134A0E4B1A600B4B1B6B03F07003C5
:1027C000702B07D10A4A13680E49A1FB03135B085B
:1027D00013607047044B1A6B0549C2F302120B6871
:1027E000D3400B60704700BF00060E40101A0E4029
:1027F0003C010720001BB70000093D0000127A00D1
:10280000001C4E0EABAAAAAA094B1B6813B9094AB1
:10281000074B1A60064B1B681A180749914204DBE4
:102820001046034A1060184670474FF0FF3070475B
:1028300084AC072050CD0720FC7F08204FF0FF30EC
:10284000704700BF4FF400534B600020704700BF3B
:10285000012070470020704730B585B0284B98475D
:10286000284B9847284B98470B20284CA0470C2012
:10287000A0470D20A0470E20A047254B9847254B89
:102880009847254B4FF080625A61C3F8A020234A35
:102890004FF480011161C2F8A01051634FF0006243
:1028A0001A61C3F8A0201A631D4B9847012000212C
:1028B00003221C4B98471C4B186020B100210A468C
:1028C0000B461A4CA0470123009300240194029464
:1028D0000394174817494FF400722346164DA84732
:1028E00002230093019402940394144814494FF472
:1028F00000722346A847134B9847204605B030BDC9
:102900005D210800C121080029070800E52508000D
:10291000510108006D02080000100E4000120E4028
:1029200081060800990C080040010720F10C0800FE
:10293000F5020800948D0800A1100800AD030800FE
:10294000A08D0800A51208004A0011D212F500124D
:1029500011D20DD56FF47873B3EB62520ED44FEAF7
:10296000C12343F0004343EA505323FA02F0704777
:102970004FF00000704750EA013002D14FF0FF30B5
:1029800070474FF0000070474FEA4102B2F1E04358
:1029900024BFB3F5001CDCF1FE5C0DD901F0004C46
:1029A0004FEAC0024CEA5070B2F1004F40EB830096
:1029B00008BF20F00100704711F0804F21D113F1C2
:1029C0003872BCBF01F00040704741F480114FEAFB
:1029D0005252C2F11802C2F1200C10FA0CF320FA84
:1029E00002F018BF40F001004FEAC1234FEAD323A1
:1029F00003FA0CFC40EA0C0023FA02F34FEA43030B
:102A0000CCE77FEA625307D150EA01331EBF4FF093
:102A1000FE4040F44000704701F0004040F0FE40AE
:102A200040F40000704700BF80F0004002E000BFAB
:102A300081F0004142001FBF5FEA410392EA030FA9
:102A40007FEA226C7FEA236C6AD04FEA1262D2EBF3
:102A50001363C1BFD218414048404140B8BF5B42F8
:102A6000192B88BF704710F0004F40F4000020F091
:102A70007F4018BF404211F0004F41F4000121F0A7
:102A80007F4118BF494292EA030F3FD0A2F10102F1
:102A900041FA03FC10EB0C00C3F1200301FA03F12F
:102AA00000F0004302D5494260EB4000B0F5000F52
:102AB00013D3B0F1807F06D340084FEA310102F111
:102AC0000102FE2A51D2B1F1004F40EBC25008BFC3
:102AD00020F0010040EA03007047490040EB00008D
:102AE00010F4000FA2F10102EDD1B0FA80FCACF1BC
:102AF000080CB2EB0C0200FA0CF0AABF00EBC250BB
:102B000052421843BCBFD0401843704792F0000FA8
:102B100081F4000106BF80F400000132013BB5E7FB
:102B20004FEA41037FEA226C18BF7FEA236C21D071
:102B300092EA030F04D092F0000F08BF08467047D6
:102B400090EA010F1CBF0020704712F07F4F04D1A4
:102B5000400028BF40F00040704712F100723CBFB7
:102B600000F50000704700F0004343F0FE4040F4E1
:102B7000000070477FEA226216BF08467FEA23639F
:102B80000146420206BF5FEA412390EA010F40F48A
:102B9000800070474FF0000304E000BF10F00043D6
:102BA00048BF40425FEA000C08BF704743F09643BD
:102BB00001464FF000001CE050EA010208BF7047D8
:102BC0004FF000030AE000BF50EA010208BF70475F
:102BD00011F0004302D5404261EB41015FEA010C74
:102BE00002BF84460146002043F0B64308BFA3F16C
:102BF0008053A3F50003BCFA8CF2083AA3EBC2534E
:102C000010DB01FA02FC634400FA02FCC2F120026C
:102C1000BCF1004F20FA02F243EB020008BF20F0A3
:102C20000100704702F1200201FA02FCC2F1200209
:102C300050EA4C0021FA02F243EB020008BF20EAFE
:102C4000DC7070474FF0FF0C1CEAD0521EBF1CEA2C
:102C5000D15392EA0C0F93EA0C0F6FD01A4480EA1A
:102C6000010C400218BF5FEA41211ED04FF0006303
:102C700043EA501043EA5111A0FB01310CF000402F
:102C8000B1F5000F3EBF490041EAD3715B0040EA55
:102C9000010062F17F02FD2A1DD8B3F1004F40EB25
:102CA000C25008BF20F00100704790F0000F0CF0F8
:102CB000004C08BF49024CEA502040EA51207F3ABC
:102CC000C2BFD2F1FF0340EAC250704740F4000097
:102CD0004FF00003013A5DDC12F1190FDCBF00F088
:102CE00000407047C2F10002410021FA02F1C2F136
:102CF000200200FA02FC5FEA310040F1000053EAD2
:102D00004C0308BF20EADC70704792F0000F00F01F
:102D1000004C02BF400010F4000F013AF9D040EA25
:102D20000C0093F0000F01F0004C02BF490011F4B9
:102D3000000F013BF9D041EA0C018FE70CEAD153B7
:102D400092EA0C0F18BF93EA0C0F0AD030F0004C37
:102D500018BF31F0004CD8D180EA010000F00040EB
:102D6000704790F0000F17BF90F0004F084691F0A9
:102D7000000F91F0004F14D092EA0C0F01D14202E3
:102D80000FD193EA0C0F03D14B0218BF084608D1AC
:102D900080EA010000F0004040F0FE4040F40000F6
:102DA000704740F0FE4040F4400070474FF0FF0C89
:102DB0001CEAD0521EBF1CEAD15392EA0C0F93EAD0
:102DC0000C0F69D0A2EB030280EA010C49024FEA22
:102DD000402037D04FF0805343EA111143EA1013DB
:102DE0000CF000408B4238BF5B0042F17D024FF493
:102DF000000C8B4224BF5B1A40EA0C00B3EB510F6E
:102E000024BFA3EB510340EA5C00B3EB910F24BF56
:102E1000A3EB910340EA9C00B3EBD10F24BFA3EBDB
:102E2000D10340EADC001B0118BF5FEA1C1CE0D1A3
:102E3000FD2A3FF650AF8B4240EBC25008BF20F056
:102E4000010070470CF0004C4CEA50207F32C2BFAA
:102E5000D2F1FF0340EAC250704740F400004FF047
:102E60000003013A37E792F0000F00F0004C02BF78
:102E7000400010F4000F013AF9D040EA0C0093F042
:102E8000000F01F0004C02BF490011F4000F013B9C
:102E9000F9D041EA0C0195E70CEAD15392EA0C0F04
:102EA00008D142027FF47DAF93EA0C0F7FF470AF3C
:102EB000084676E793EA0C0F04D14B023FF44CAF7F
:102EC00008466EE730F0004C18BF31F0004CCAD114
:102ED00030F000427FF45CAF31F000437FF43CAF50
:102EE0005FE700BF4FF0FF3C06E000BF4FF0010C72
:102EF00002E000BF4FF0010C4DF804CD4FEA400254
:102F00004FEA41037FEA226C18BF7FEA236C11D09D
:102F100001B052EA530C18BF90EA010F58BFB2EB50
:102F2000030088BFC81738BF6FEAE17018BF40F0D0
:102F3000010070477FEA226C02D15FEA402C05D184
:102F40007FEA236CE4D15FEA412CE1D05DF8040B09
:102F5000704700BF844608466146FFE70FB5FFF79C
:102F6000C9FF002848BF10F1000F0FBD4DF808ED54
:102F7000FFF7F4FF0CBF012000205DF808FB00BF45
:102F80004DF808EDFFF7EAFF34BF012000205DF89F
:102F900008FB00BF4DF808EDFFF7E0FF94BF0120EC
:102FA00000205DF808FB00BF4DF808EDFFF7D2FFE9
:102FB00094BF012000205DF808FB00BF4DF808ED2C
:102FC000FFF7C8FF34BF012000205DF808FB00BFF9
:102FD00042000ED2B2F1FE4F0BD34FF09E03B3EB83
:102FE000126209D44FEA002343F0004323FA02F0AF
:102FF00070474FF00000704712F1610F01D142029B
:1030000002D14FF0FF3070474FF00000704700BF13
:10301000002101F051BA00BF00210A2201F0E2BAFA
:10302000F8B50F4605460C460F4E07E00B685A1CD4
:103030000A6018780A2811D004F8010B336859681F
:103040004B68013B002B4B60F0DA284600F030F96A
:103050000A2803D0431CEFD1A74203D000232370DA
:103060003846F8BD0020F8BD70050720024B014628
:103070001868FFF7D5BF00BF7005072070B50F4E69
:103080000F4D761BB61018BF002405D0013455F83B
:10309000043B9847A642F9D10A4E0B4D06F080F842
:1030A000761BB61018BF002406D0013455F8043B37
:1030B0009847A642F9D170BD70BD00BFAC91080021
:1030C000AC910800B4910800AC9108000FB410B5A1
:1030D000074B82B004AC54F8042B1868234681686F
:1030E000019401F007FB02B0BDE8104004B0704746
:1030F00070050720931E222B10D80A2A10B506D07F
:1031000000230C46194401F079FA204610BD00282E
:10311000F6DA2D230B7040420123F2E700200870FD
:10312000704700BFFFF7E6BF844641EA000313F093
:10313000030349D1403A23D30B6803604B684360D3
:103140008B688360CB68C3600B6903614B69436123
:103150008B698361CB69C3610B6A03624B6A43620B
:103160008B6A8362CB6AC3620B6B03634B6B4363F3
:103170008B6B8363CB6BC36340304031403ADBD20F
:1031800030320BD30B6803604B6843608B688360FD
:10319000CB68C36010301031103AF3D20C3205D333
:1031A00051F8043B40F8043B043AF9D2043208D009
:1031B000D2071CBF11F8013B00F8013B01D30B887B
:1031C00003806046704700BF082A13D38B07B1D035
:1031D00010F00303AED0C3F10403D21ADB071CBF07
:1031E00011F8013B00F8013BA4D331F8023B20F871
:1031F000023B9FE7043AD9D3013A11F8013B00F8AA
:10320000013BF9D20B7803704B7843708B78837055
:103210006046704770B4840746D0541E002A41D0DF
:10322000CDB2034602E0621EE4B3144603F8015B2C
:103230009A07F8D1032C2ED9CDB245EA05250F2CDB
:1032400045EA054519D9264603F11002103E0F2E16
:1032500042F8105C42F80C5C42F8085C42F8045CEE
:1032600002F11002F2D8A4F1100222F00F0204F0D1
:103270000F041032032C13440DD91E462246043A83
:10328000032A46F8045BFAD8221F22F00302043214
:10329000134404F003042CB1C9B21C4403F8011B0D
:1032A000A342FBD170BC704714460346C2E700BF7F
:1032B00038B50C46054608B1836B63B128462146F4
:1032C00004F04CFB50B994E80C00013B511C84E81D
:1032D0000A00107838BD02F00FFAEFE74FF0FF3028
:1032E00038BD00BF00290CBF022200224FF48063CA
:1032F00000F000B82DE9F0413A4D04462E689046A2
:103300000D461F4616B1B36B002B3CD0B8F1020F2F
:103310002FD8002F2DDB2146304602F047F9A18936
:1033200000236360A3610B0627D421F0830189B2D7
:10333000B8F1020FA1812AD0002D36D0B8F1010FCB
:1033400011D089B201F00800274B80B2F3632560E9
:103350002561676178B111F0030F18BF00270020C5
:10336000A760BDE8F08141F001017B42A181A3612A
:10337000E7E74FF0FF30BDE8F0812169304602F009
:1033800093FAA189D1E7304602F0B6F9BEE70020F2
:1033900004F1430341F0020100250122A181A5604F
:1033A000236023616261BDE8F081002F08BF4FF404
:1033B0008067384603F046F9054628B1A18941F0F7
:1033C000800189B2A181B9E74FF4806003F03AF936
:1033D000054618B9A1894FF0FF30D9E74FF480674F
:1033E000ECE700BF70050720FD55080020F0030141
:1033F00010F00300C0F1000051F8043B00F1040C90
:103400004FEACC0C6FF000021CBF22FA0CF21343FF
:103410004FF0010C4CEA0C2C4CEA0C4CA3EB0C02C8
:1034200022EA030212EACC1204BF51F8043B043032
:10343000F4D0C2F1000102EA0102B2FA82F2C2F152
:103440001F0200EBD2007047002A3CD040EA010383
:1034500013F00303F0B425D1032A23D904680D68BF
:10346000AC421FD1043A30D0A4F1013525EA04045E
:1034700014F0803F2CD1071D0D1D0DE057F8043BC3
:103480000E68A3F10134B34224EA03040AD1043ADA
:103490001BD014F0803F1ED1032A2946384605F17F
:1034A0000405EBD803780C78013AA34208D162B145
:1034B00073B110F8013F11F8014F013AA342F6D061
:1034C000181BF0BC7047104670471046F0BC7047A0
:1034D0001846F0BC70470020F3E700BF40EA010344
:1034E0009B0770B42BD1032A29D90C4603462146E9
:1034F00054F8046BA6F1013525EA060515F0803F66
:1035000005D1043A032A43F8046B2146EFD8A2B14F
:103510000C78013A1C70013101333CB16AB111F8E9
:10352000014B013A03F8014B002CF7D12AB11A44A0
:10353000002103F8011B9342FBD170BC7047034686
:10354000E5E700BF2DE9F0410F46904603F0B0FEDD
:1035500004460D46B8F1000F11D0C7F30A53C3F16A
:103560006B03002B0BDD1B0503F17F55002405F5D4
:10357000401522462B4604F049FEBDE8F081204666
:103580002946BDE8F08100BF2DE9F04F0F469FB0FE
:1035900083460B4600200021CDE90401039200225E
:1035A00019971A921C4613F8016B2D2E00F2F08029
:1035B000DFE816F02E00EE00EE00EE00EE00EE006A
:1035C000EE00EE00EE00DD00DD00DD00DD00DD00E0
:1035D000EE00EE00EE00EE00EE00EE00EE00EE007B
:1035E000EE00EE00EE00EE00EE00EE00EE00EE006B
:1035F000EE00EE00DD00EE00EE00EE00EE00EE006C
:10360000EE00EE00EE00EE00EE004400EE00DA0008
:10361000039B4FF000084FF0000953B100230693BD
:10362000039B1F60069B23B1414609F10043884676
:103630009946404649461FB0BDE8F08F00230693E7
:10364000631C19936678002EE2D0302E1C4600F0E1
:10365000A480002308940A93A6F130034FF0000AD7
:10366000092B55462346544619D8082CC8BF0AEBE7
:103670008A0A05EB850203F1010306EB4202199366
:10368000C4BF06EB4A06A6F1300A1E78D8BFA2F1E5
:103690003005A6F13002092A04F10104E5D95846A3
:1036A000079302F05BFFD0F80080584602F056FF07
:1036B0000068FFF79BFE079B024641461846FFF74E
:1036C000C3FE8046002800F0E48000208446864641
:1036D000A146652E73D0452E71D00023B9F1000F9D
:1036E00047D0B9F1100FC846CCEB03032846A8BF5A
:1036F0004FF01008079304F013FD002C08BF4C4650
:10370000B8F1090FCDE9040113DD764B03EBC803D3
:1037100053E9122304F07AFD064650460F4604F0A2
:10372000FFFC02460B463046394604F0BDFBCDE9AE
:103730000401B9F10F0F00F3D780079B002B00F0B5
:10374000A580079B40F36785162B00F3D284DDE943
:1037500004230798634901EBC001D1E9000104F09B
:1037600055FD804689460DE00123069368E71993CD
:1037700018E718B90A9B002B00F0A1824FF000084F
:103780004FF00009039B002B3FF44CAF199F47E714
:103790000023302E06937FF45CAF6378582B00F043
:1037A000A483782B00F0A183013419942678302E5D
:1037B000FAD0002EE2D0012308940A934CE7B9F125
:1037C000000F4ED0199F7B1C19937E782B2E00F092
:1037D0006D822D2E00F064824FF00008A6F13003B8
:1037E000092B324600F20282302E06D1199B01339A
:1037F00019931E78302EFAD03246313A082A3FF615
:103800006CAF199B19460A46013219920793A6F12B
:1038100030034E78A6F1300109290BD801321992F4
:1038200003EB830306EB43031678303BA6F130012C
:103830000929F3D90799521A082A00F3518444F64A
:103840001F629342A8BF1346C8F10002534043448D
:10385000B9F1000F7FF445AF8BE74FF0000C4FF04C
:10386000010E002840F028820A9B002B3FF4D0AEC6
:103870008146A7E76FF0004305934FF0FF330493B1
:103880002B0742BF059B43F000430593DDE9048904
:1038900078E7584602F062FE0068FFF7A7FD199B23
:1038A0001A1819921E5C002C40F0E881302E204638
:1038B00005D10132199216780130302EF9D0A6F1D7
:1038C0003103082B00F2A082199B303E089300F1CF
:1038D000010C4FF0010905EB850506EB45050020BD
:1038E000DAE100BFA0900800079BC8EB09089844E4
:1038F000B8F1000F40F39A8318F00F000AD0DDE909
:103900000423C14901EBC001D1E9000104F07EFCB0
:10391000CDE9040138F00F0640F0288200230A9315
:103920000095089922464B46584603F03FFA1090FE
:10393000002800F03B83079A0021002AC2F100030F
:10394000A8BF0B460F460C9322EAE27307910B9334
:10395000109C5846616803F0B5F98246002800F0D3
:10396000A582DDE9042321469046994622690C315F
:10397000023292000C30CDE90889FFF7D5FB1BA875
:103980001CA98DE8030042464B46584603F01AFD39
:103990001A90002800F08B825846012103F0A0FA0B
:1039A0000746002800F082821B9A002AC0F212818A
:1039B0000C9B0B9903EB02080A981C9B121A1A44E1
:1039C0006FF47F708242C3F1360380F2EC80801A7C
:1039D0001F28A3EB000300F302810125002285408C
:1039E000119208EB0309C1454A46A8BF4246CE18CA
:1039F0000A9B1E44B2421346A8BF3346002B04DD87
:103A0000C3EB0909F61AC3EB08080C9BB3B139469E
:103A100058461A4603F00EFB0746002800F046827F
:103A2000584639461A9A03F065FA0446002800F011
:103A30003D8258461A9903F06DF91A94B9F1000FB6
:103A400008DD4A4658461A9903F044FB1A900028AC
:103A500000F02D820B9B43B1514658460B9A03F060
:103A6000E9FA8246002800F02182002E08DD514646
:103A70003246584603F02EFB8246002800F016829C
:103A8000B8F1000F08DD39464246584603F022FBE4
:103A90000746002800F00A8258461A99524603F059
:103AA00095FB0790002800F00182079A0026D36852
:103AB0003946D6600D9303F065FBB042C0F2208416
:103AC00000F0DD830798394603F0D0FC00224FF068
:103AD000804304460D4604F015FE002867D00D9B78
:103AE000002B00F0A280B146484DDDF814C0DFF88D
:103AF0001C810024464E474B0CEA06069E4200F00D
:103B000027820A9B23B3B6F1D46F21D83CA3D3E913
:103B100000234846414604F0F5FDB0B14846414611
:103B2000FEF712FF8146002800F0268304F0F8FA21
:103B3000814688460D9B002B40F0198308F1004315
:103B4000CDF850901593DDE9144505F1D6639D1B22
:103B5000DDE9080103F0ACFB02460B46204629468E
:103B600004F054FB02460B46DDE9080104F09CF921
:103B70000C46CDE904010A9B23B9254B23409E4204
:103B800000F01F8258461A9903F0C4F8584651466F
:103B900003F0C0F85846394603F0BCF85846079978
:103BA00003F0B8F8D4E600221192012519E71A4B68
:103BB00020462946002204F029FB0D9B81468846B9
:103BC00073BB01F100430E900F93DDE90E45DDF864
:103BD00014C08FE70B9BDDF83080991AECE60F4894
:103BE0000125801A05FA00F21192FAE619970023CE
:103BF000B9F1000F7FF475ADBBE500BFAFF30080F6
:103C00000000C0FFFFFFDF41A09008000000F03F70
:103C10000000F07F0000E07F0000E03FE3FBFFFFDB
:103C200002460B46CDE90E23CFE7049BDDE90401F4
:103C3000002B40F0DE80C1F313038C46002B40F0D4
:103C4000DC801191204629460022B54B04F050FD3E
:103C5000DDF844C0002840F09883B24B2046294646
:103C6000002204F0D3FA8146884601F10043DDF8D2
:103C700044C016901793DDE916453BE74046A14640
:103C8000C446A6F13002092A13D8431C1646002A5E
:103C900040F04D821846199B5A1C19925E78F0E745
:103CA0004FF00108BB1C1993BE7897E54FF0000850
:103CB000F8E74FF0010E0CE54FF0000982E5BEF188
:103CC000000F7FF4A5AC493E252E3FF6A1AC01A321
:103CD00053F826F0533E080011360800113608004C
:103CE00011360800113608001B3E08001136080086
:103CF0001136080011360800113608001136080088
:103D00001136080011360800113608001136080077
:103D10001136080011360800113608001136080067
:103D20001136080011360800113608001136080057
:103D30001136080011360800113608001136080047
:103D40001136080011360800113608001136080037
:103D500011360800533E08001136080011360800DD
:103D600011360800113608001B3E0800B6F59A7F90
:103D700000F31C813611012EDFF8D08140F323833C
:103D8000DDE9040147464FF0000A16F0010F0AF181
:103D9000010A4FEA660603D0D7E9002304F036FA99
:103DA000012E07F10807F0D1CDE90401059B08EBCE
:103DB000CA08A3F154730593DDE90423D8E900018F
:103DC00004F024FA21F000431B0D574A1B059342CF
:103DD000CDE9040100F2EA80A2F58012934240F29C
:103DE000CF82524B059300230A934FF0FF33049385
:103DF00096E5012800F0C3818C4600244C4D4FF01D
:103E00000009DFF81C8175E6652E3FF426AD4FF002
:103E10000009CC464FF0010E5DE41999454809E0D0
:103E200011F8013FA3F14104192C98BF20339342AC
:103E30007FF4EEAB10F8012B002AF1D14B1C199343
:103E40004B78282B00F0FD823B4B05930023049315
:103E50001CE5199A394809E012F8013FA3F1410421
:103E6000192C98BF20338B427FF4D2AB10F8011B82
:103E70000029F1D119921546314809E012F8013FA5
:103E8000A3F14104192C98BF20338B4240F0988253
:103E900010F8011B0029F1D101321992294B059329
:103EA00000230493F2E4013140F0B8821A98254BC4
:103EB0000022059322230492CBF80030DDE9048927
:103EC0000146584602F026FF5846514602F022FFAE
:103ED0005846394602F01EFF5846109902F01AFF64
:103EE0005846079902F016FF4CE4069A1AAB019265
:103EF0000093584619A9144A1BAB01F0D9FF10F0E2
:103F0000070605463FF43AAC062E40F047810134DF
:103F1000002319944FF000084FF00009069331E494
:103F20000000F03F0000E03F0000A07CFFFFEF7FBB
:103F30000000F0BF008E08000000F8FFF48D0800BC
:103F4000F88D08000000F07F048E080078910800CA
:103F5000ACF154730593DDE904231046194603F0D0
:103F6000A7F902460B462046294604F04FF90246BF
:103F70000B46DDE9040103F097FF21F000431B0D20
:103F8000B34A1B059342CDE90401DDE90801CDE9FF
:103F9000120140F2A980AF4B139A9A4200F0EB81D4
:103FA000AC4B05934FF0FF330493EBE5AA4B002293
:103FB000059304922223DDE90489CBF80030FFF752
:103FC000E1BB4146484604F0BBFB04F0B9F80B46A0
:103FD00002464146484603F065FF0D9B80468946F0
:103FE00083B9049B73B9C4F313045CB992A3D3E9F6
:103FF000002304F07DFB00283FF4C4ADDDE9048913
:104000001A985DE78EA3D3E900234046494604F0A1
:104010006FFB0028F2D18CA3D3E900234046494628
:1040200004F084FB00283FF4ADADE7E73FF476AC45
:10403000C8F1000717F00F020AD0DDE90401874B31
:1040400003EBC203D3E9002304F00AFACDE904012B
:104050003F113FF463AC1F2F39DC17F0100300F061
:10406000E7816A23002FD8BF0A9314DDDDE904013C
:104070007B4E0A9317F0010F4FEA670703D0D6E98A
:10408000002304F0C3F8002F06F10806F2DC0A9BB7
:10409000CDE9040193B1DDE90401C1F30A53C3F191
:1040A0006B03002B0ADD1F2B40F3E8810022342B29
:1040B000049240F3EB814FF05C730593DDE904015A
:1040C0000022002304F00AFB00283FF429AC22233D
:1040D000CBF800304FF000084FF00009FFF752BB5B
:1040E00044F61F63FFF7B0BB059B03F154740594BE
:1040F00041E5079AC9F125039A423FF7F5ABDDE99F
:104100000423564CC9F10F0904EBC901D1E90001A0
:1041100004F07CF8079BC9EB030904EBC904D4E95C
:10412000002304F073F880468946FFF72BBB012B70
:104130009C4414D0484402E05D00814510D009F150
:10414000010909F1FF33082B05EB8503F4DDB9F113
:10415000100FDCBF0AEB8A0A4FEA4A0AEDE748462D
:10416000082800F101097FDC199BFFF7B4BB4A4620
:104170004346CDE91423E6E4DFF8E880DAE4DDE93C
:1041800004239C46002B7FF438AE2223CBF800306A
:104190001A984FF000084FF0000991E61A9A3AB1C8
:1041A0001CA8352103F08EF958461A9902F0B2FD89
:1041B0001B9B062E3FF664AB01A252F826F000BF0F
:1041C0000D420800F5410800E9410800DD41080002
:1041D00075380800F54108000D4208001E4B059394
:1041E00000230493FFF74CBB1C9B04931D9B05937A
:1041F000FFF746BB1D9A1C9903F2334322F4801249
:1042000042EA035304910593FFF73ABB0023059359
:104210000493FFF735BB1633FFF666ABDDE9040107
:10422000079A0E4BA3EBC203D3E9002304F018F95D
:1042300080468946FFF7A6BA9535A094FFFFCF3F89
:104240009535A094FFFFDF3F35E5AF350000E03F37
:10425000FFFF9F7CFFFFEF7F0000F07FA090080032
:10426000B88D08000000F03FB9F1100FD7BF0AEB7E
:104270008A0A199B199B02EB4A0A00200CE50D9E45
:10428000AE46DDE90889002E00F08880DDE90445AE
:10429000824BC5F3130199422A4600F0A980119B75
:1042A000002B00F08880059A13420DD0DDE904014F
:1042B0000A9A002E00F08A80FFF744F942464B46E6
:1042C00003F0F2FD804689460A9BBBB1744B404621
:1042D000139300231293DDE91223494603F096FF5E
:1042E00002460B4680468946CDE9042331B9049B3A
:1042F00023B922231A98CBF80030E1E51A98DFE5BC
:104300000D9EDDE90889002EDED1049B002BDBD158
:10431000DDE90401C1F313030C46002BD4D1059B46
:1043200023F000431B0D1B05B3F1D66FCCD9079AC0
:10433000536913B91369012BC6DD07990122584649
:1043400002F0C8FE3946079002F01CFF0028BBDDD2
:104350000A9B002B40F08780524B2340A3F580132B
:104360006FEA13536FEA035305934FF0FF3304933F
:10437000DDE90489A8E7129B01337FF411AE95E5CE
:1043800001F154730593FFF7C9BA474B0022CDE9F9
:104390001623DDF83490DFF81C816CE4DDE90401BC
:1043A000C1F313030C46002B7FF479AF049B002B61
:1043B0007FF475AFCCE7049A1EEA020F84D075E74C
:1043C0006B1C19936AE54FF0000AEFE4FFF7BAF8A7
:1043D00002460B464046494603F064FD0022002396
:1043E0008046894604F07AF900287FF4CEAE6BE768
:1043F0000A9B049913B32B4B2B40B3F1D46F1DD8F8
:104400001B0DC3F16B034FF0FF3000FA03F3994229
:104410007FF445AF254B9A423FF445AD214B134005
:1044200003F58013059300230493DDE904894BE72A
:10443000002FD8BF0A933FF719AE3FE64FF0FF3386
:10444000E5E719A81A491CAA01F0BCFF05287FF46A
:10445000FBAC1D9B43F0FF4343F4E00305931C9B1F
:104460000493FFF713BA0F4B2340B3F1D66F3FF716
:1044700075AFB3F15C7F3FF729AF86E64FF0FF32AF
:1044800002FA03F3049A1A40049217E6203B4FF015
:10449000FF3202FA03F30B4005930FE6FFFF0F0014
:1044A000000050390000F07F0000E0BFFFFFEF7F09
:1044B000E08D08000000E03F024B0A460146186804
:1044C000FFF762B8700507202DE9F04F444C834692
:1044D0000E46D4F800E000E02646344614F8015BAE
:1044E0000EEB0500407800F0080000F0FF080028FF
:1044F000F2D12D2D4BD02B2D04BF7578B41C1BB1E0
:10450000102B60D09A4603E0302D54D00A239A46EF
:10451000B8F1000F14BF4FF000406FF00040B0FB47
:10452000FAF90027BC460AFB19000CE0303DAB420B
:1045300019DD7E1C05D0CC4524D821D00AFB0C5CAB
:10454000012714F8015B0EEB0506767816F0040FD0
:10455000ECD116F0030606D0012E0CBF37265726E5
:10456000AD1BAB42E5DC7B1C16D0C8F100008CEA29
:10457000000040444AB107B1611E1160BDE8F08FF0
:104580008542DBDD4FF0FF37DBE7BDE8F08FB41C81
:1045900075784FF00108B2E7B8F1000F4FF0220331
:1045A00014BF4FF000406FF00040CBF80030002AFD
:1045B000E2D1BDE8F08F237803F0DF03582B09D058
:1045C00008239A46A4E7302D9CD1207800F0DF0024
:1045D000582897D14FF0100A65785346023497E770
:1045E0007405072030B40D46034C134601462A4695
:1045F000206830BCFFF768BF70050720F0B58BB0AE
:104600006F461546DFF870E004460E46BEE80F0020
:104610000FC7BEE80F000FC79EE80300AB1E47F8A8
:10462000040B222B397022D8711E0846002300E0AB
:104630001346B4FBF5F205FB12440AAF3C4414F8F0
:10464000287C144600F8017F5A1C002CF0D1B45489
:10465000F2184BB1013411F8015F1778181B84422E
:104660000F7002F80159F5DB30460BB0F0BD0020A9
:1046700030700BB0F0BD00BF188E08004B6E2DE9F6
:10468000F0479C040F4692462BD59368126833B3CB
:10469000804602F1080919E96000B60817D0043D08
:1046A000002401E0A64210D0404655F8041F3A46C7
:1046B00001F09AF8431C04F10104F3D10023CAF875
:1046C0000830CAF80430BDE8F087DAF80830A3EB08
:1046D0008603CAF8083009F10809002BDBD1002055
:1046E000ECE701F0B9F90023CAF80830CAF8043041
:1046F000BDE8F0872DE9F04FABB01C460091934622
:104700000493019018B1836B002B00F0E380009BB1
:1047100099898AB2900408D418465B6E41F400521D
:1047200023F400538281436692B2110740F1B280B4
:10473000009B1B69002B00F0AD8002F01A020A2AD0
:1047400000F0B4800DF1680A5446002309930293E7
:104750000F930E93CDF834A09BF80030002B00F09F
:10476000A384252B00F0A0845A4601E0252B03D01A
:1047700012F8013F002BF9D1CBEB0206154696B19A
:104780000E9B0F9A01333244072BC4F800B06660C9
:104790000F920E9379DD002A40F0AD845446029BBF
:1047A0000E92334402932B78002B00F05F834FF07E
:1047B000000300214FF0FF3C8DF82F30681C6B7810
:1047C00088460D46664600F1010BA3F12002582AE7
:1047D00000F2AA82DFE812F09A02A802A802A2025E
:1047E000A802A802A802A802A802A8025402600215
:1047F000A8020D016C02A80229012F012F012F012F
:104800002F012F012F012F012F012F01A802A80234
:10481000A802A802A802A802A802A802A802A80248
:104820003D01A802A802A802A802A802A802A802A4
:10483000A802A802A8027401A802A802A802A8025D
:10484000A8028B01A802A802A301A802A802A8023C
:10485000A802A802A802A802A802A802A802C701EA
:10486000DA01A802A802A8022301DA01A802A8021C
:104870004B02A80288021301F4010702A8020D02EC
:10488000A8028100A802A80232020834029B334425
:10489000029388E70198009900F072FDA8B9009B87
:1048A0009A8902F01A020A2A7FF44CAF009BB3F9EE
:1048B0000E30002BFFF646AF019800995A4623466A
:1048C00000F020FD2BB0BDE8F08F4FF0FF302BB093
:1048D000BDE8F08F00F010FF19E718F0200F0395E6
:1048E000B44600F00C81049B073323F0070303F167
:1048F0000802D3E90067049201234FF00002E14669
:104900008DF82F200025BCF1000FA8BF28F08008EB
:1049100056EA070240F0C480BCF1000F00F080832B
:10492000012B00F0C580022B00F086835146F2086F
:1049300042EA4772F80806F0070307461646303386
:1049400056EA070201F8013DF1D118F0010F079175
:1049500040F0FA83C1EB0A09E1454E46B8BF66460E
:1049600005B1013618F00203059318BF023618F09E
:104970008403069340F0F981039B9D1B002D40F3B7
:10498000F481102D40F38A842046DDF838E0644637
:104990000F9AC44F10237146844607E001F1020EBE
:1049A00001460CF1080C103D102D13DD481C10328F
:1049B00007280F92CCF80070CCF804300E90EDDD93
:1049C000002A40F0C281103D102D11464FF0010E1B
:1049D000D446EBDC63467146A4461C462A440729AC
:1049E0000F92276065600E9100F346830834481CDF
:1049F000BEE1584648F004089BF80030E3E618F0A2
:104A000020030395B44662D0049B073323F00703C9
:104A100003F10802D3E90067049200236DE748F030
:104A200040089BF800305846CDE648F080089BF8D7
:104A300000305846C7E6A3F1300200251BF8013BC1
:104A400005EB850502EB4505A3F13002092AF5D9EE
:104A5000BBE648F0100818F0200F0395B4468DF817
:104A60002F1000F09B800499073121F00701D1E954
:104A7000002316461F4608310491002A73F10003F3
:104A8000C0F2A483BCF1000FA8BF28F0800856EA4A
:104A900007029DF82F50E1464FF001033FF43CAF71
:104AA000012B7FF440AF002F08BF0A2E80F0328325
:104AB0002AAB303603F8416DC3EB0A0907934BE785
:104AC00048F0100818F020030395B4469CD118F064
:104AD000100240F0F78218F0400300F0F3820499CE
:104AE00013460A4604320E880027049205E748F070
:104AF000100818F0200F0395B4467FF4F4AE049A22
:104B000018F0100F134640F0E48218F0400F00F048
:104B1000E08216880432002701230492EDE6624AFF
:104B200018F0200F0395B4468DF82F10099200F06D
:104B30008F80049A073222F0070202F108010491E3
:104B4000D2E9006718F0010F00F08F8256EA0702E1
:104B500000F08B8230228DF8313048F002088DF859
:104B600030200223C9E6049A012613684FF00001A1
:104B70008DF840301346B1460433049310AB0395CF
:104B80008DF82F1007934FF0000CEBE618F0200F74
:104B90000395B4468DF82F107FF465AF049A18F092
:104BA000100F134640F0A08218F0400F00F09C82D6
:104BB000B2F900600433F717049332463B465CE7D2
:104BC000049978238DF83130384BB44630220E6882
:104BD00004310993039548F00208049100278DF8E9
:104BE0003020022389E648F020089BF80030584620
:104BF000E9E54FF00001049A03951368B446079362
:104C00008DF82F10151D002B00F04E83002EC0F2E2
:104C10002983079E624630460021CDF810C001F07E
:104C20009FFFDDF810C0002800F04E830495C6EB0E
:104C300000099DF82F504FF0000C8DE61B4A18F02C
:104C4000200F0395B44609928DF82F107FF471AFB1
:104C5000049918F0100F0A4640F0418218F0400FF6
:104C600000F03D8204320E88002704926AE79BF828
:104C700000306C2B00F0E98248F010085846A2E59D
:104C8000049A134615680433002DC0F2E68204939B
:104C90009BF80030584696E59BF8003058462B218B
:104CA00091E500BF808E0800508E0800648E0800D9
:104CB0009BF800300BF101002A2B00F00F83A3F1C9
:104CC0003002092A83464FF000063FF67EAD1BF8FE
:104CD000013B06EB860602EB4606A3F13002092AE9
:104CE000F5D946EAE67670E518F0200F8DF82F101A
:104CF00000F08382049A134604330493029B1168E4
:104D0000DF171A463B46C1E9002325E558469BF8C4
:104D1000003000297FF457AD202154E548F0010808
:104D200058469BF800304EE503958DF82F10002B68
:104D300000F09C808DF840304FF0000301268DF884
:104D40002F3010ABB14607931DE7019800990DAACB
:104D50000893FFF793FC002840F08F800E99D4460B
:104D60000F9A01F1010E089B1DE60E990F9A481C3F
:104D70009DF82F306BB101320DF12F03012107286F
:104D80000F920E902360616000F334810146083475
:104D90000130059B63B102320CA9022307280F9250
:104DA0000E9084E80A0000F3348101460834013093
:104DB000069B802B00F0D480C9EB0C07002F2BDD65
:104DC000102FAB4D1FDDA6461023019C07E001F11B
:104DD000020C01460EF1080E103F102F11DD481C89
:104DE000103207280F92CEF80050CEF804300E9003
:104DF000EDDD6ABB103F102F4FF0010C1146D64677
:104E0000EDDC744660463A4407280F9284E8A0001F
:104E10000E903BDC0834013002EB0903079A0728A7
:104E20000F9384E804020E903DDD002B40F03F819B
:104E300018F0040F0E9340F03081029B039A9642C3
:104E4000ACBF9B199B18029300230E93544683E436
:104E5000204600990DAA0593FFF710FC68B90E993A
:104E6000D6460F9A01F1010C059BB5E70F9B23B1C4
:104E7000019800990DAAFFF701FC009B9B895B0636
:104E80003FF523AD02982BB0BDE8F08F002A40F02B
:104E900090814B46544607990122CDF86C90CDF88D
:104EA0003C901A910E9204F1080218F0040F39D0C8
:104EB00003998D1B002D35DD102D40F300820E98D7
:104EC0006C4F1024DDF80480DDF8009006E000F15E
:104ED000020E08460832103D102D10DD411C103323
:104EE00007290F93176054600E91F0DD002B2AD133
:104EF000103D102D4FF0010E18465246EEDC2B44AB
:104F0000BEF1070F0F9317605560CDF838E009DD4B
:104F1000002B92D0019800990DAAFFF7AFFB002853
:104F2000ABD10F9B029A03998E42ACBF92195218D3
:104F30000292002B88D0019800990DAAFFF79EFBE2
:104F4000002881D099E7404649460DAAFFF796FB15
:104F5000002892D10E9852460F9B00F1010EBAE73D
:104F6000039B9F1B002F7FF727AF102F40F3B381C8
:104F700020463F4D64461023844607E001F1020EAF
:104F800001460CF1080C103F102F11DD481C1032A7
:104F900007280F92CCF80050CCF804300E90EDDDCD
:104FA000C2B9103F102F4FF0010E1146D446EDDC70
:104FB0006346A4461C463A44BEF1070F0F9284E8AC
:104FC000A000CDF838E000F3EE8008340EF10100C7
:104FD0007146F1E6019800990DAA0593FFF74EFB83
:104FE00000287FF44AAF0E99D4460F9A01F1010EC2
:104FF000059BC8E7002A40F0C580059B002B00F008
:1050000085800CAA02231A9208461B931A4654461E
:10501000CBE6002A40F0A580012011465446C7E6A1
:1050200003BB18F0010F1DD02AAB302203F8412D2D
:10503000C3EB0A0907938FE4D1460998330943EA81
:105040000773390906F00F020F461E46835C09F804
:10505000013D56EA0703F1D14B46CDF81C90C3EB56
:105060000A0979E4CDF81CA076E4022345E400BFE8
:10507000408E0800808E0800002A40F0D5809DF800
:105080002F30002B00F0AC8001230DF12F011846CA
:105090001B931A461A91544678E6039A951B002DE5
:1050A00052463FF709AFC8E65D46FFF77CBB019863
:1050B00000990DAAFFF7E2FA00287FF4DEAE52460F
:1050C0000F9BF2E6049900270A4604320E68049208
:1050D00013E404321E680027012304920DE41668CD
:1050E0000432049200272DE51E680433F717049359
:1050F00032463B46C1E4019800990DAAFFF7BEFA7B
:1051000000287FF4BAAE5446FFF7C0BB08465446A9
:1051100011464DE6D146CDF814C0304639460A2234
:10512000002303F035FB30323046394609F8012DB3
:1051300000230A2203F02CFB06460F4656EA07031B
:10514000EBD1DDF814C087E7302B079B87D0013BFC
:105150001A4607933023C2EB0A0901F8013CFFF716
:10516000FBBB019800990DAACDF814C0FFF786FA91
:1051700000287FF482AE0E9954460F9A481CDDF841
:1051800014C015E6019800990DAACDF820C0FFF7CC
:1051900075FA00287FF471AE0E9954460F9A481C98
:1051A000DDF820C0F5E5002A67D1012011465446FC
:1051B00002E6019800990DAAFFF760FA00287FF433
:1051C0005CAE0E9854460F9A013025E62D257642A6
:1051D00067EB47078DF82F50E1460123FFF793BB9C
:1051E000059B114601205446002B3FF4E5AD0CAA67
:1051F00002238AE80C001A46D7E518F0100F0BD1ED
:1052000018F0400F08D0049A136804320492BDF8D5
:1052100008201A80FFF7A0BA049A13680432049297
:10522000029A1A60FFF798BA019800990DAACDF872
:1052300020C0FFF723FA00287FF41FAE0E995446D2
:105240000F9A481CDDF820C092E548F020080BF1C9
:1052500001009BF80130FFF7B6BA6D42049358463F
:10526000FFF7C8BB07980495FEF7C0F89DF82F50CC
:1052700081464FF0000CFFF76FBB019800990DAA13
:10528000CDF814C0FFF7FAF900287FF4F6AD0E99B7
:1052900054460F9A481CDDF814C08DE50E990F9AFC
:1052A0000131154FFFF79ABB062E144B28BF4FF064
:1052B000060CE14604952CEAEC76079363E40E991C
:1052C0000D4F01F1010E1AE6E146049584469DF862
:1052D0002F50FFF741BB8646094D6CE6049A9BF8B8
:1052E000013016680432002E0492BFF66CAA4FF00B
:1052F000FF36FFF768BA00BF808E0800788E08007E
:10530000408E08002DE9F04588464F6EADF26C4D99
:105310001997D8F81C70B1F80CE0B1F80EA00797F7
:10532000D8F824701AAC4FF480652EF0020E0026D7
:1053300069460094049402950595ADF80CE0ADF82B
:105340000EA0099706960546FFF7D4F9041E07DB61
:105350002846694600F02AF9B04218BF4FF0FF34E2
:10536000BDF80C305B0605D5B8F80C3043F04003AF
:10537000A8F80C3020460DF26C4DBDE8F08500BF5A
:1053800038B52F4B054618680C4610B1836B002BBF
:1053900036D0A28993B218070CD52069A8B113F0B2
:1053A00001021ED0636900225B42A361A260F0B1DA
:1053B000002038BDD9063AD5580724D4206942F0D8
:1053C0000803A3819BB20028E9D103F42072B2F54F
:1053D000007FE4D02846214601F0C4F8A389206963
:1053E000DDE7990758BF6269A2600028E0D1A38970
:1053F0001A06DED543F04003A3814FF0FF3038BDDD
:1054000000F07AF9C5E7216B49B104F140039942F4
:1054100003D0284600F048FAA289002323632069BC
:1054200022F02402002392B284E80900C7E742F088
:10543000400209232B604FF0FF30A28138BD00BF2E
:1054400070050720024B13B1024800F005B8704701
:10545000000000000D5708000146002002460346E8
:1054600002F0F8BB8B892DE9F0419AB20D46110785
:1054700080463CD46A6843F40063002AAB8165DD52
:10548000AE6A002E4BD09BB203F48052002192B240
:10549000D8F80040C8F80010002A5BD02A6D5F07DA
:1054A00005D569682B6B521A0BB1EB6BD21A4046CB
:1054B000E9690023B047461C56D0AB892A6923F41A
:1054C00000639BB200212A60DA04AB8169603BD49F
:1054D000296BC8F8004011B305F14003994202D08E
:1054E000404600F0E1F900202863BDE8F0812E6914
:1054F000AEB191072C680CBF6B6900232E60A41B12
:10550000AB600AE0324623466F6A4046E969B84715
:105510000028A4EB0004064404DD002CF2DC00208B
:10552000BDE8F081AB894FF0FF3043F04003AB8121
:10553000BDE8F081AB892A6923F400639BB2AB819B
:10554000DB0469602A60C3D52865C1E7EA6B002ADD
:1055500096DCE4E701234046E969B047431C024674
:1055600019D0AB89AE6A9AE7D8F800100029E1D0CB
:105570001D2907D0162905D0AB8943F04003AB8124
:10558000BDE8F081AB89296923F400630022AB8177
:1055900085E806009CE7D8F80030002BE1D01D2BF1
:1055A00001D0162BBED1C8F80040B8E710B50446AC
:1055B00082B008B1836B53B1B1F90C0008B902B0E5
:1055C00010BD204602B0BDE81040FFF74BBF01916F
:1055D00000F092F80199EFE720B1054B01461868F9
:1055E000FFF7E4BF034B0449186800F0E9BB00BFB4
:1055F00070050720B08D0800AD550800014900F086
:10560000DFBB00BF7D7D08002DE9F04F0746354820
:105610007D68002407F53B7204230321F863C7F873
:10562000E412C7F8E822C7F8E04283B02C606C604F
:10563000AC606C66EC812C616C61AC61AB81214625
:1056400005F15C000822FDF7E5FDDFF89CB0BE68BF
:10565000DFF898A0DFF89890DFF8988001230922FE
:10566000C5F820B0C5F824A0C5F82890C5F82C804E
:10567000ED612146F381B28106F15C003460746013
:10568000B460746634617461B46108220193FDF7FB
:10569000C1FDFD6812200222F661C6F820B0C6F8EE
:1056A00024A0C6F82890C6F82C802146A881EA815B
:1056B0002C606C60AC606C662C616C61AC6105F157
:1056C0005C000822FDF7A6FD019BED61C5F820B046
:1056D000C5F824A0C5F82890C5F82C80BB6303B09A
:1056E000BDE8F08FFD550800917A0800B57A0800F2
:1056F000ED7A08000D7B0800836B03B17047FFF75C
:1057000083BF00BF704700BF704700BF38B5084B6C
:10571000084DED1AAC1018BFED1805D0013C55F836
:10572000043D9847002CF9D1BDE8384003F042BD54
:10573000C0910800C49108002DE9F04182B00746ED
:105740000E46144600F004FF012840D0384601A957
:10575000324604F15C0302F031FAB0F1FF3F8046BB
:105760002ED000283BD09DF80410002509E02368C6
:1057700019702368013323600135A8452FD901AB87
:10578000595DA368013B002BA360F0DAA269934244
:1057900006DB236819702368197801330A29EAD1D6
:1057A0003846224602F0B6F9A0F1FF30B0FA80F098
:1057B00040090028E0D04FF0FF3002B0BDE8F08192
:1057C000A38943F04003A38102B0BDE8F081731EBA
:1057D000FE2BBBD8F1B280468DF80410C5E73046E9
:1057E00002B0BDE8F08100BF938913F4005F0BD1D4
:1057F00010B4546E43F4005344F40054546693813F
:105800005DF8044BFFF798BFFFF796BFF8B50C465D
:10581000224F064601F052FABB685D6825F0030589
:10582000291B01F6EF7121F47F6121F00F01A1F531
:105830008054B4F5805F07DB3046002102F016F992
:10584000BB682B44984204D0304601F039FA00205E
:10585000F8BD3046614202F009F901300DD0104B1D
:10586000BA6819682D1B45F001053046091B5560C3
:10587000196001F025FA0120F8BD3046002102F040
:10588000F5F8BA68831A0F2BDEDD064C044924684C
:1058900043F00103001B53600860D5E7D4050720DF
:1058A00000AD0720E009072000294ED02DE9F04186
:1058B0000C46804601F002FA54F8047C6249A4F1D7
:1058C000080527F00102AB188E6858689E4220F048
:1058D00003005AD0FE0758600BD454F8087C01F13D
:1058E000080EED1BAC683A44744567D0EF68E7607A
:1058F000BC601C186468E4070CD4544F9C680244D4
:10590000BC427CD0D86842F00103E06084606B60E8
:10591000AA5003E042F001036B60AA50B2F5007F89
:1059200014D2D20801EBC20301244868921004FA91
:1059300002F29C681043AC60EB6048609D60E560DB
:105940004046BDE8F04101F0BBB97047530A042B53
:1059500047D8930903F13804600001EB80008368A5
:105960003949834243D0596821F00301914202D959
:105970009B689842F7D1DA68EA60AB604046956070
:10598000DD60BDE8F04101F09BB9FF07024407D498
:1059900054F8084C2D1BEB68A8682244C36098603B
:1059A0002B4B42F001001B6868609A428D60C7D3A0
:1059B000284B40461968FFF729FFC1E719184968C5
:1059C000C90709D4D96802449B6842F00100D96034
:1059D0008B606860AA50B3E742F001036B60AA5085
:1059E000AEE7142B14D803F15B046000B5E74A68F6
:1059F000A4100120A04002434A601A46BCE742F0CE
:105A000001034D610D61EC60AC606B60AA5097E7DB
:105A1000542B04D8130B03F16E0460009DE7B3F51B
:105A2000AA7F04D8D30B03F17704600095E740F216
:105A30005450834204D8930C03F17C0460008CE73B
:105A4000FC207E2489E700BFD4050720DC05072061
:105A5000DC090720FCAC07209368002B00F0B18024
:105A60002DE9F04FB1F80CE083B01EF0080F0C46A2
:105A70008146164628D00B6933B30EF002081FFA90
:105A800088F0356880B34FF0000BD846DFF8E4A209
:105A9000B8F1000F00F08F80D0454346484628BF3C
:105AA0005346E1695A46676AB847002840F3A88020
:105AB000B36883441B1AC0EB0808B360002BE7D11E
:105AC000002003B0BDE8F08F48462146FFF758FCA0
:105AD000002840F04681B4F80CE035680EF002086A
