S017000050696E67697370726F6A656B7456322E737265631C
S214080000D8AD0720612608005D2608005D26080092
S2140800105D2608005D2608005D2608000000000032
S21408002000000000000000000000000009090800A9
S2140800305D2608000000000085090800C1090800C0
S2140800405D2608005D2608005D2608005D26080077
S2140800505D2608005D2608005D2608005D26080067
S2140800605D2608005D26080000000000CD24080074
S214080070E1240800F524080009250800000000000F
S21408008000000000A90208005D2608005D2608009A
S2140800905D2608005D2608005D2608005D26080027
S2140800A05D260800000000005D2608005D260800A2
S2140800B05D2608005D2608005D2608005D26080007
S2140800C05D2608005D2608005D2608005D260800F7
S2140800D05D2608005D2608005D2608005D260800E7
S2140800E05D2608005D2608005D2608005D260800D7
S2140800F05D26080010B5054C237833B9044B13B1B8
S2140801000448AFF300800123237010BDA809072018
S2140801100000000048650800084B10B51BB10848E9
S2140801200849AFF300800848036803B910BD074BB9
S214080130002BFBD0BDE81040184700BF00000000A9
S21408014048650800AC09072048650800000000005C
S21408015038B525200E4B98470E4C20460E490F4AB8
S21408016000230F4DA847204600210A460B460D4D92
S214080170A847204610210C4B984720460A210B4BCF
S2140801809847204600210A46094B984738BD00BFC5
S2140801900926080000000C40007A030A002D3101E9
S2140801A0F101080045020800250208006D02080053
S2140801B035020800A8B92DE9F0410C469046002AF9
S2140801C00ADD8F18084E094D306821462B68984777
S2140801D00134BC42F8D101E04FF000084046BDE8C3
S2140801E0F0814FF0FF307047B88D0720B08D07209C
S2140801F030B4012404600024446040F20225C0F8AC
S2140802002051C0F80441C0F8144145682B435200F9
S214080210B1FBF2F14A1E120292B213434360204623
S21408022030BC7047436823F01003436043681943A3
S2140802304160704743681943D201D2B21143416006
S214080240704700BF10B444682243090601F0706185
S2140802500A431B0703F04053134343605DF8044BFF
S214080260704700BF02230360704700BF01238B401E
S21408027003617047006A7047006B7047436913F064
S214080280020F1DBFC1F30801C1610020012070479D
S214080290436913F0010F05D08369C3F308030B60A5
S2140802A0002070470120704700B583B011480DF153
S2140802B007010122104B984772B6BFF35F8F0022E2
S2140802C00E4B1A700E4B1B789DF807100D4AD1542A
S2140802D09B2B03D100220A4B1A7002E00133084A0E
S2140802E013700122054B1A70BFF35F8F62B603B016
S2140802F05DF804FB008009409D1E080036010720B3
S214080300600A0720C409072008B5024602480349C0
S214080310034B984708BD00BF00400940640A072001
S2140803200921080030B585B02420154B984728BB0E
S214080330144B019300240294134B0393134D284641
S21408034001A9134B984713490C818C720B234B60F9
S21408035040F2E7330B61CC600C6028460E4B98479A
S2140803600E484FF080514FF480320D4B9847284680
S21408037021460C4B984720460B4B984705B030BD96
S21408038009260800583E0F0000BD01050040094038
S214080390B51F0800640A07200120080000100E4058
S2140803A0652208002D210800090308002DE9F047FA
S2140803B086B0224BB3F80090214B9847ADF816004C
S2140803C00023009301930293039304931D4DDFF8D3
S2140803D09480DFF894A0286800214FF6FF720B4639
S2140803E0C04720B3BAF8000069460A22164FB84735
S2140803F06846164CA047164E3046A047154BB3F92C
S214080400000069460A22B8476846A0473046A04713
S214080410114B188869460A22B8476846A0473046EE
S214080420A047286800210A460B460C4CA0470DF149
S214080430160049460A4B9847CDE700BFBC8D0720F3
S214080440C91308003C01072061300800093008007D
S2140804503C630800AE8C0720AC8C0720850D08008E
S214080460191608003D0F0800788D07202DE9F04F73
S21408047083B0364B9847ADF80600354C354D364EAA
S2140804804FF000082046354B98472046A84710F0FE
S214080490807FFAD02046324B9847324B83FB0023A6
S2140804A0C217C2EBA303304A32F81390591C32F82D
S2140804B01120C2EB090203EB8303A0EB430303FB03
S2140804C002992A4BB3F800A0C9EB0A0A5046284BF3
S2140804D09847284B196801F10041274B9847274948
S2140804E0274B984783463146264B984730B9584697
S2140804F04146254B984710B1C34600E0B3465846D8
S214080500224B9847224B9847224B186800214FF6F3
S214080510FF720B46204FB84788B1204BA3F80090CF
S2140805201F4BA3F800A05846184B98471D4B188039
S214080530184B186800210A460B461B4FB8470DF1A2
S21408054006003C21194B98479CE700BFC9130800D2
S21408055000000C407902080000C0794465020800D3
S2140805607502080067666666B08C0720CC8D072083
S214080570E12A0800C08D0720892B08000000FA43EE
S21408058079290800012F0800C52E0800152F080035
S214080590090308003C0107203D0F0800788D072056
S2140805A0AE8C0720AC8C0720850D080019160800AD
S2140805B0F0B583B004460D46002301931F4B9842BE
S2140805C007D11F461E4E38462946B0470028FAD19E
S2140805D019E01C4B984209D11F461B4E384601A904
S2140805E0B0470028FAD1019B2B7019E0174B9842A8
S2140805F009D11E46144C304601A9A0470028FAD156
S214080600019B2B7018E0124B9C4209D11E460E4CDB
S214080610304601A9A0470028FAD1019B2B700BE0B1
S2140806200C4B9C4208D11E46074C304601A9A047F1
S2140806300028FAD1019B2B7003B0F0BD00080E40CD
S2140806407D210800008009409102080000C009408A
S21408065000000A4000400A4070B50C461E4B9842FF
S21408066008D11E461D4D30462146A8470028FAD117
S214080670012070BD1A4B984208D11E46194D3046C7
S2140806802146A8470028FAD1012070BD164B98428B
S21408069008D11E46134D30462146A8470028FAD1F1
S2140806A0012070BD114B984208D11E460D4D3046AC
S2140806B02146A8470028FAD1012070BD0C4B984265
S2140806C008D11E46074D30462146A8470028FAD1CD
S2140806D0012070BD002070BD00080E406D21080086
S2140806E0008009407D02080000C0094000000A405A
S2140806F000400A40F0B587B00023019302930393A5
S21408070004930593214C04F1C807214E214D01A8F6
S214080710B04701A8A84724F8020FBC42F7D101A8A1
S2140807201B4DA84701A81B4CA0471B4E86FB002361
S214080730C0171A4FC0EBA310B847194B186001A88A
S214080740A84701A8A04786FB0023C017C0EBA31044
S214080750B847144B186001A8A84701A8A04786FB0D
S2140807600036C017C0EBA610B8470F4B186001A894
S214080770A84701A8A0470D4B188001A8A84701A8BC
S214080780A0470B4B188007B0F0BD00BFAE8C072003
S214080790A92F0800552F0800D34D6210E12A08003B
S2140807A0C08D0720C48D0720C88D0720CC8D072054
S2140807B0BC8D072030B585B00820124DA847124CCE
S2140807C0124B1C60124A134B1A60134A134B1A60DA
S2140807D0134B01934FF4E13302934FF400630393F2
S2140807E00820A847204601A90E4B98470E4D2B68AF
S2140807F0986800210D4CA0472B6858680021A04730
S21408080005B030BD0926080000080E40B88D072040
S21408081059060800B48D0720B1050800B08D0720DA
S21408082000BD0105352108006805072021320800AB
S21408083000F1080343604FF6FF720281C36003614C
S21408084000230360704700BF00230361704700BFA2
S21408085043685A684A6042688A605A689160596074
S21408086041600861036801330360704710B40C8860
S2140808704FF6FF739C4201D102690CE000F10802B2
S214080880C3681B889BB29C4205D3526853681B8872
S2140808909BB29C42F9D253684B6099608A6051605B
S2140808A008610368013303605DF8044B704700BFB6
S2140808B0436882689A60836842685A6003695A681F
S2140808C0824204BF82685A60002202611A68013AAE
S2140808D01A601868704700BF03480068006880F30D
S2140808E0088862B600DF00BF08ED00E04FF08073AE
S2140808F040F8043C40F8081C002340F80C3C40F83C
S214080900202C4038704700BF064B19680868B0E8C6
S214080910F00F80F309884FF0000080F311884EF03E
S2140809200D0E7047CC8B07204FF08052014B1A6093
S214080930704700BF04ED00E0EFF311804FF0A00110
S21408094081F311887047002008B5034B9847034A7F
S21408095013680133136008BD390908002C01072005
S21408096080F31188704700BF08B5044A1368013B36
S214080970136013B90020024B984708BD2C010720C6
S21408098061090800EFF309800C4B1A6820E9F00F9C
S21408099010602DE908404FF0A00080F3118800F0A1
S2140809A0C9FE4FF0000080F31188BDE808401968BA
S2140809B00868B0E8F00F80F309887047CC8B0720EA
S2140809C008B54FF08052054B1A60054B9847054B03
S2140809D098470020044B984708BD00BF04ED00E088
S2140809E039090800E913080061090800034A044B9E
S2140809F01A600722043B1A60704700BF1F480100B0
S214080A0014E000E010B5094B1A6842F470021A6048
S214080A101A6842F070421A60054B98470024054B46
S214080A201C60054B9847204610BD00BF20ED00E02F
S214080A30ED0908002C010720D9080800134A00E031
S214080A401A4613688342FBD330B411465468151906
S214080A50854203D168680444546010464268841886
S214080A609C420CD10A4B1B689C4206D063681A4409
S214080A7042600B681B68036002E0046000E00360E5
S214080A80814218BF086030BC704700BF948A0720B0
S214080A90908A072038B50446294B9847294B1B6887
S214080AA09BB9294A294B13600021516047F6F0721A
S214080AB09818244D286047F6F475595199505A608D
S214080AC01860234A1368103B1360002C2ED004F1DC
S214080AD0100212F0070F1CBF22F007020832511E40
S214080AE047F6FE73994223D817490C6801E0214659
S214080AF01C4663689A4202D92368002BF7D1114B2B
S214080B001B689C4216D00D68103523680B60636816
S214080B109B1A202B04D9A018436062600D4B984797
S214080B200B4A136861685B1A136004E0002502E04C
S214080B30002500E00025084B9847284638BD00BF2A
S214080B40B9130800908A0720948A0720900A07207D
S214080B50300107203D0A08001515080080B110B5B9
S214080B600446084B9847084A116854F80C3C0B444E
S214080B701360A4F11000054B9847054B984710BD25
S214080B80704700BFB9130800300107203D0A080067
S214080B901515080010B50446036C3BB903681BBB63
S214080BA04068134B9847002363601DE06AB9806865
S214080BB01A46104B9847A268236C1344A3606268D1
S214080BC0934211D32368A3600EE0C0681A46094B07
S214080BD09847236C5B42E2681A44E26021688A42BE
S214080BE002D262681344E360A36B0133A36310BDAB
S214080BF0751A08006530080038B50346006858B10D
S214080C001A6CDC681444DC605D68AC4228BFD860A7
S214080C100846D968014B984738BD00BF65300800BC
S214080C20F8B504461E4B9847A36C002B13DD636A81
S214080C301BB910E0636A23B90DE004F12406194DC8
S214080C40194F3046A84700B1B847A36C013BA364C8
S214080C50A36C002BEEDC4FF0FF33A364134B9847CE
S214080C600F4B9847636C002B13DD23691BB910E004
S214080C70236923B90DE004F110060A4D0A4F3046E1
S214080C80A84700B1B847636C013B6364636C002BEC
S214080C90EEDC4FF0FF336364044B9847F8BD00BFA3
S214080CA04909080085180800BD19080069090800E0
S214080CB038B518B9174B984700BFFDE70D460446E8
S214080CC0154B98472268216CE36B03FB01F3D01899
S214080CD060600020A063A2605B1A1344E3604FF0D4
S214080CE0FF336364A36455B923697BB104F110002C
S214080CF00A4B9847012809D1094B984706E004F1A2
S214080D001000084DA84704F12400A847064B98474A
S214080D10012038BD39090800490908008518080067
S214080D20290908003108080069090800F8B5A0B1C3
S214080D300D461746064650200E4B9847044660B1A7
S214080D4005FB06F001300B4B9847206040B920465B
S214080D50094B984701E000BFFDE7084B9847FAE7BC
S214080D60E663256420460121054B984784F84D70B4
S214080D702046F8BD950A08005D0B080039090800EA
S214080D80B10C08002DE9F04F85B00093ADF80620A9
S214080D9018B93A4B984700BFFDE78A46044629B972
S214080DA0036C2BB1354B984700BFFDE7002700E0E2
S214080DB00027334EDFF8F0B0324DB047A26BE36B36
S214080DC09A4212D220465146009A2F4B9847636A99
S214080DD03BB104F124002D4B9847012801D12C4B38
S214080DE09847284B9847012045E0BDF806301BB9C0
S214080DF0244B984700203EE017B902A8D847012799
S214080E00A847244B9847B047636CB3F1FF3F04BF2D
S214080E1000236364A36CB3F1FF3F04BF0023A364FD
S214080E20A84702A80DF106011B4B9847E8B9B0473A
S214080E30D4F83890D4F83C80A847C1450FD104F1BF
S214080E401000BDF80610154B98472046144B9847D7
S214080E50144B98470028B0D10D4B9847ADE720466D
S214080E600F4B98470F4B9847A7E720460C4B9847D9
S214080E700C4B9847002005B0BDE8F08F39090800EC
S214080E804909080069090800950B08008518080034
S214080E9029090800B913080031190800D9170800ED
S214080EA0210C080015150800091908002DE9F0415D
S214080EB018B91E4B984700BFFDE70E4615469846DC
S214080EC0044629B9036C1BB1184B984700BFFDE7C9
S214080ED0164B98470746A26BE36B9A4218D22046F1
S214080EE031464246124B9847A36CB3F1FF3F0AD1EE
S214080EF0636A7BB104F124000E4B984760B16DB16C
S214080F0001242C600BE0A36C0133A364012406E0E3
S214080F10002404E0012402E0012400E0012438460D
S214080F20054B98472046BDE8F08100BF3909080000
S214080F30950B080085180800610908002DE9F04F90
S214080F4085B0ADF8062018B9474B984700BFFDE7AF
S214080F5089469A46044629B9036C2BB1424B9847F2
S214080F6000BFFDE7002700E00027404EDFF82CB161
S214080F703F4DB047A36B43B3E568204649463D4B13
S214080F809847BAF1000F12D1A36B013BA3632368FD
S214080F9013B9394B98476060236993B104F1100080
S214080FA0364B984701280CD1354B984709E0E56041
S214080FB0636A33B104F12400304B984708B1304BCC
S214080FC098472B4B984701204BE0BDF806301BB9D5
S214080FD0274B9847002044E017B902A8D8470127AE
S214080FE0A847284B9847B047636CB3F1FF3F04BF48
S214080FF000236364A36CB3F1FF3F04BF0023A3641C
S214081000A84702A80DF106011F4B984718BBB04722
S214081010D4F83880A847B8F1000F16D1236823B94A
S214081020B0476068194B9847A84704F12400BDF8F4
S2140810300610174B98472046164B9847164B984766
S214081040002896D10E4B984793E72046114B9847B1
S214081050114B98478DE720460E4B98470E4B9847FE
S214081060002005B0BDE8F08F3909080049090800D6
S21408107069090800F90B0800C9190800851808004E
S21408108029090800B913080031190800F5190800DD
S214081090D9170800210C08001515080009190800BA
S2140810A038B504460D460D4B9847636CB3F1FF3FC1
S2140810B004BF00236364A36CB3F1FF3F04BF00239F
S2140810C0A364074B9847A36B23B904F12400294669
S2140810D0044B98472046044B984738BD49090800F2
S2140810E0690908003D180800210C080010B50446D8
S2140810F00F4B1B6898800F4B1B889BB2984207D2F1
S2140811000D4B18680A4B196804310C4B984710BDEC
S2140811100B4B1868064B19680431084B9847094B5F
S2140811201B889BB29C423CBF064B1C8010BD00BF70
S214081130CC8B0720E88B0720EC8B07206D0808006F
S214081140B48A0720340107202DE9F04F83B00C9F9E
S214081150DDF834800E9E019018B9624B984700BFA0
S214081160FDE7894615469B46092F03D95D4B9847E8
S21408117000BFFDE750205C4B98470446002800F067
S214081180AB80002E40F0A580A800574B98472063F8
S21408119018B92046554B98479EE0A521AA00544BFF
S2140811A0984705F18045013D236B03EB850323F043
S2140811B0070504F13400494610224E4B9847002391
S2140811C084F843303E46092F28BF0926E662E664BF
S2140811D004F104094846DFF86CA1D04704F118006A
S2140811E0D0472461C6F10A06268364622846019918
S2140811F05A46414B9847206010F0070F03D0394BEA
S214081200984700BFFDE7B8F1000F01D0C8F80040C6
S2140812103A4B98473A4A136801331360394B1B68B0
S2140812200BBB384B1C601368012B26D1364D05F1D5
S214081230C808364E2846B04714354545FAD1DFF873
S21408124008814046314DA847314E3046A8473148B8
S214081250A8473148A8473148A847314BC3F800800B
S214081260304B1E6009E0304B1B6833B9254B1B68B2
S214081270DB6A9F4224BF234B1C60E06A2B4B1B682B
S214081280984284BF294B1860294A1368636401335F
S2140812901360284B1B68984284BF264B186000EBE7
S2140812A08000194B03EB80004946234B9847234B95
S2140812B098471D4B1B6843B1124B1B68DB6A9F425D
S2140812C005D91F4B9847012008E0012006E00120B9
S2140812D004E00663304660E74FF0FF3003B0BDE831
S2140812E0F08F00BF39090800950A08005D0B080052
S2140812F05131080085330800ED0808004909080040
S214081300F48B0720CC8B0720EC8A072031080800CE
S214081310D48A0720D08B0720B48B0720A08A072002
S214081320B48A0720EC8B0720B88A0720FC8B072096
S214081330F08B0720E88A072051080800690908008A
S2140813402909080049080800C08A072010B584B093
S214081350002300930193029303930F480F494FF419
S21408136080720F4CA04701280ED10E4B98470128D3
S2140813700AD10D4B984701220C4B1A6000220C4BE1
S2140813801A800C4B984704E018B9074B984700BFDB
S214081390FDE704B010BD00BFB116080040630800A2
S2140813A049110800711B080039090800B88A072087
S2140813B0E88B0720050A0800024A13680133136001
S2140813C0704700BFE48B072010B5044B9847044BC2
S2140813D01C88A4B2034B9847204610BD490908004C
S2140813E0E88B0720690908002DE9F0413D4B1B688A
S2140813F0002B71D13C4A138801339BB213801388A3
S2140814009BB203BB394B1B681B681BB1384B98470C
S21408141000BFFDE7354B1968364A1068186011603A
S21408142035490A6801320A601B681B6823B94FF6FB
S214081430FF72324B1A8006E02C4B1B68DB68DB68B1
S2140814409A882E4B1A80284B1A8892B22B4B1B88E8
S2140814509BB29A4244D3254B1B681B686BB1234B3F
S2140814601B68DB68DC68A2881F4B1B889BB29A4205
S21408147013D8234D234E244F13E04FF6FF721F4B0D
S2140814801A80BDE8F081194B1B68DB68DC68A28807
S214081490154B1B889BB29A4203D9184B1A80BDE895
S2140814A0F08104F104084046A847A36A13B104F182
S2140814B01800A847E06A3368984288BF306000EB97
S2140814C0800007EB80004146104B9847074B1B6887
S2140814D01B68002BD7D1D0E70D4A13680133136079
S2140814E0BDE8F081E48B0720E88B0720B48A072044
S2140814F039090800EC8B0720C88B07203401072021
S214081500B1080800E88A0720EC8A07205108080076
S2140815109C8A07202DE9F843304B1B681BB9304BD3
S214081520984700BFFDE72F4B98472C4B1A68013A9F
S2140815301A601B68002B49D12B4B1B6803BB002481
S21408154047E0D8F80C30DC6804F11800B84704F116
S21408155004094846B847E06A3368984288BF30604E
S21408156000EB8000214B03EB80004946204B984750
S214081570204B1B68E26ADB6A9A4228BF012504E012
S2140815800025DFF890801C4F1C4ED8F80030002B42
S214081590D7D11B4B1B6863B1194B1B687BB1194D20
S2140815A0174CA8472368013B23602368002BF8D113
S2140815B005E0012D03D0144B1B68012B08D100222F
S2140815C0114B1A60114B9847012402E0002400E0F2
S2140815D000240F4B98472046BDE8F883E48B072085
S2140815E03909080049090800F48B0720EC8A072007
S2140815F051080800CC8B0720B1080800E88A0720A5
S2140816009C8A0720E9130800F88B07202909080098
S21408161069090800D08B072038B518B91C4B9847BD
S21408162000BFFDE70C46054619B9194B984700BF99
S214081630FDE7184B98472B881C44A4B2164A128814
S21408164092B2934208D9A3421ED9134B1B889BB269
S2140816502C809C4210D907E0A34213D80E4B1B8857
S2140816609BB29C420ED80FE00C4B186804300C4B0B
S214081670984720460B4B98470B4B984730B90B4B6F
S214081680984738BD2C80EFE72C80F5E738BD00BFBB
S21408169039090800B9130800E88B0720CC8B072007
S2140816A0B1080800ED1008001515080029090800FB
S2140816B080B5154D154EDFF87480154F19E0C047F4
S2140816C03468B847ACB1134B9847F368DC68201DFC
S2140816D0114B9847114A1368013B13602B68013B6E
S2140816E02B600F4B9847206BDFF84490C84720467E
S2140816F0C8472B68002BE2D10A4B1B68012BF8D988
S214081700094B9847D7E700BFBC8A0720B48B072049
S2140817101515080049090800B1080800F48B0720C9
S21408172069090800EC8A072029090800B913080087
S2140817305D0B080010B5224B1B686BB9214B1B6864
S21408174003EB83039B00204AD358CBB91D4B1B6879
S21408175043B11C4A1C4909E001221C4B1A6010BD03
S21408176013681BB91A4B984700BFFDE71368013B7F
S2140817701360136803EB830351F82330002BEFD074
S214081780104B1B68104A9900C81802EB8000446882
S2140817906468446002460832944206D1606803EBE7
S2140817A08301094A02EB8102506003EB8303064A71
S2140817B002EB83035B68DA68064B1A6010BD00BF4D
S2140817C0E48B0720E88A0720EC8A0720F88B072096
S2140817D039090800CC8B072038B518B90F4B98473D
S2140817E000BFFDE70C460E4D296818310D4B98478B
S2140817F0286804300C4B98474FF6FF739C4205D177
S21408180029680A4804310A4B984738BD094B188896
S214081810204480B2084B984738BD00BF39090800F5
S214081820CC8B07206D080800B1080800A08A07209E
S21408183051080800E88B0720ED10080038B518B9DD
S2140818400A4B984700BFFDE70D46094C216818313A
S214081850084B984720680430074B9847074B18886A
S214081860284480B2064B984738BD00BF390908009F
S214081870CC8B072051080800B1080800E88B072021
S214081880ED10080038B5C368DC681CB9164B9847D5
S21408189000BFFDE704F118052846144B9847144B7B
S2140818A01B689BB9251D2846104B9847E06A114BC4
S2140818B01B68984284BF0F4B186000EB80000E4BE5
S2140818C003EB800029460D4B984703E00C48294651
S2140818D00A4B98470B4B1B68E06ADB6A984234BF92
S2140818E00020012038BD00BF39090800B1080800EB
S2140818F0E48B0720E88A0720EC8A072051080800AE
S214081900D08B0720CC8B072008B518B9054B98470D
S21408191000BFFDE7044A12680260044A1288828003
S21408192008BD00BF39090800C88B0720E88B0720C8
S21408193038B518B91B4B984700BFFDE70D46044657
S21408194019B9184B984700BFFDE7174B98472B88DF
S2140819504FF6FF7293421BD0144A126821689142D0
S21408196005D0134A128892B2A188914212D9104A19
S2140819701188A088091A89B28B420DD9128892B2AA
S214081980121A9B1A2B8020460A4B9847002404E01C
S214081990002402E0012400E00124074B9847204673
S2140819A038BD00BF3909080049090800C88B072058
S2140819B0E88B072009190800690908000122014B6D
S2140819C01A607047F88B0720014B1868704700BFED
S2140819D0CC8B0720054B1B6833B1054B1B68002BC7
S2140819E00CBF01200220704700207047B88A0720E5
S2140819F0E48B0720002831D038B5C36A184909682F
S214081A00C96A8B4229D216490968C96AC1F10A010E
S214081A10018303EB8303134901EB8303416999426E
S214081A2017D10546041D20460F4B98470C4B1B68DC
S214081A30D86AE8620D4B1B68984284BF0B4B186047
S214081A4000EB8000074B03EB80002146084B9847C5
S214081A5038BD034B1B68DB6AC36238BD704700BFDE
S214081A60CC8B0720EC8A0720B1080800E88A0720F4
S214081A7051080800E8B138B5C16AC26C914217D05F
S214081A800446051D28460B4B9847E06CE062C0F1FB
S214081A900A032383084B1B68984284BF064B1860CA
S214081AA000EB8000054B03EB80002946044B984763
S214081AB038BD7047B1080800E88A0720EC8A072076
S214081AC05108080010B504468180206191420BD861
S214081AD0D21A038B92B2934211D90B4B1868211D68
S214081AE00A4B9847002010BD9A4201D2994208D264
S214081AF0074B1868211D054B9847002010BD01208C
S214081B0010BD012010BD00BF348C07206D080800EA
S214081B10008C072070B50D4B98470D4B1B688BB98A
S214081B200C4D28460C4EB0470C4C2046B0470C4B84
S214081B301D600C4B1C6005200C2100220A4B9847A0
S214081B40034B1860094B984770BD00BF4909080049
S214081B50308C0720048C072031080800188C0720D2
S214081B60008C0720348C07202D0D08006909080012
S214081B7010B584B00B4B98470B4B1B6863B1092311
S214081B8000930023019302930393084808494FF4EF
S214081B900072084CA04718B9074B984700BFFDE7E6
S214081BA004B010BD151B0800308C0720CD1C08009B
S214081BB04C630800491108003909080010B584B0BC
S214081BC0104C2468D4B10191ADF80820039073B97D
S214081BD00D4B984701280B4B186801A907BFBDF89D
S214081BE01820002300221346084CA04707E020468A
S214081BF001A91A460023064CA04700E0002004B0BE
S214081C0010BD00BF308C0720D5190800850D0800C8
S214081C10AD0E08002DE9F04782B08146234B984761
S214081C208046234B1B88834236D926E0DA68158817
S214081C30ADB2DB68DC6804F1040A5046B847636A4C
S214081C4020469847E369012B19D1238B2B449BB276
S214081C50AB4206D9A380246130685146154B984795
S214081C600DE000230093204619462A46124CA0474A
S214081C7028B9124B984700BFFDE7114E114F33683D
S214081C801A68002AD2D1104A10680D4908601360F5
S214081C900123C9F8003002E00023C9F80030044BDD
S214081CA0A3F80080404602B0BDE8F087C9130800D4
S214081CB02C8C07206D080800BD1B08003909080091
S214081CC0008C0720B1080800348C07202DE9F04363
S214081CD087B0514DDFF87081504B1B681A68002A90
S214081CE000F09080DB681C88A4B24D4B984703A888
S214081CF04C4B98470746039B002B32D1844225D885
S214081D00494B9847454B1B68DB68DE68301DC04763
S214081D10F369012B15D1318B2144304689B23A46F6
S214081D202346424FB84701280BD10023009330467C
S214081D30194622463E4CA04718B93E4B984700BF66
S214081D40FDE7736A304698470DE00024E11B2868D3
S214081D5089B2394B9847344B984720B9374B984740
S214081D6001E0314B984702A82E4B98470746344E59
S214081D70DFF8B8903EE0059C1CB163690BB1201DE6
S214081D80C047039B022B23D0032B30D0002B31D126
S214081D90BDF81030218B1944204689B23A46C84708
S214081DA0012827D1636A20469847E369012B21D189
S214081DB0228BBDF810301A4400230093204619469B
S214081DC092B21B4CA047A8B91A4B984700BFFDE72C
S214081DD0BDF8103023831BB9164B984700BFFDE7A4
S214081DE0F918204689B23A463B46C84702E02046DC
S214081DF0144B9847286803A900221346B0470028C2
S214081E00B9D169E7064B984703A8064B9847074693
S214081E10039B002B99D0A4E7308C0720008C072062
S214081E20B9130800151C080015150800C51A08007F
S214081E30BD1B080039090800A11008002909080078
S214081E403D0F08005D0B0800B1080800013802289D
S214081E5018D82DE9F0410E46144682B10D46DFF833
S214081E6038800C4FD8F8000015F8011B3B689847D7
S214081E7000280ADBA81B013CF4D1BDE8F08100204D
S214081E80BDE8F0814FF0FF3070474FF0FF30BDE8F7
S214081E90F08100BFB48D0720B88D0720002A4ED0E9
S214081EA02DE9F04F85B006460D461746DFF8A4A084
S214081EB0DFF8A490CDF800A0DFF8A0B0214CCDF84C
S214081EC004B000230393564505D100982946C84711
S214081ED00028FAD115E05E4507D1019803A9A04766
S214081EE00028FAD1039B2B7017E0174B9E4208D1A7
S214081EF09846404603A9A0470028FAD1039B2B70B2
S214081F0016E0124B9E4208D19846404603A9A047C1
S214081F100028FAD1039B2B700AE00D4B9E4207D18E
S214081F209846404603A9A0470028FAD1039B2B7081
S214081F300135013FC5D1002005B0BDE8F08F00206F
S214081F40704700BF9102080000C0094000000A4020
S214081F5000400A4000080E407D2108000080094025
S214081F60F0B48CB007460E4601AC114D0FCD0FC429
S214081F700FCD0FC495E8070084E8070001AA0020E3
S214081F8052F8043BB6FBF3F3B3FBF7F3B3F5807FE5
S214081F9005D901300B28F3D14FF6FF7005E00A2863
S214081FA094BF43EA00204FF6FF700CB0F0BC7047B1
S214081FB05463080070B506460C46086840B1896840
S214081FC00E4B984705464FF6FF73984201D10EE030
S214081FD00025606840B1A168084B98474FF6FF7324
S214081FE0984207D045EA00453560002070BD4FF698
S214081FF0FF7070BD4FF6FF7070BD00BF611F080010
S21408200070B40B688A8A4C6804F00F0422430C8963
S21408201022438C7A42EA44228C7D42EA0442CC7DF2
S21408202042EA44420C7E42EA844200EB4314C4F877
S2140820300022CA68C4F804220A69C4F80C228A7DF9
S2140820403AB18C8B4A8B42EA044200EB4314C4F83C
S2140820501822846C4FF001129A40D24302EA040513
S214082060CC7F04FA03F68C7F9C4044EA06442C4353
S2140820708464446C144091F8212002FA03F591F820
S21408208020209A4042EA05422243426401229A40AE
S21408209091F822401CB1046A1443046203E0046AFF
S2140820A024EA0204046291F82440012C846E0CBFD2
S2140820B014439443846691F82540012C846E0CBF23
S2140820C044EA024224EA02428266032B0BD8C46E14
S2140820D0DD00FF22AA4024EA020291F82330AB4032
S2140820E01343C3660CE0043B026FDB00FF249C40EE
S2140820F022EA040491F8232002FA03F32343036731
S214082100002070BC704700BF10B40C680B6993427F
S21408211006D3CA6000EB4410C0F80822002001E08D
S2140821204FF6FF705DF8044B704700BF01238B40E5
S2140821304360704710B4AC2303600B684A68B3FB6F
S214082140F2F31B095C1E4FF6FE7294420AD803622D
S2140821508B68436040F20223C0F8203150230360A6
S214082160002000E001205DF8044B7047436913F037
S214082170020F1ABFC161002001207047436913F09F
S214082180010F1DBF83690B7000200120704700BF38
S21408219010B50E480E4B984700203E210D4B984729
S2140821A00D4CA0470028FCD00C4B98470C4A0D4B0A
S2140821B09A620D4CA0470028FCD010200B4B98477D
S2140821C00B4B98470148024B984710BD00BD0105C8
S2140821D0A500072085250800D9250800E925080058
S2140821E0013F0D2000060E40F92508001D250800B1
S2140821F01127080010B54FF40042124B5A600B2006
S214082200114CA0470C20A0470D20A0470E20A04741
S2140822103B204FF060510D4CA04755204FF06051C1
S214082220A04756204FF06051A04768200849A047AD
S2140822305C200849A04708484FF44071074A084BF5
S214082240984710BD501A0E400926080009230800B2
S2140822507900002801000028000E0E400100000842
S214082260DD2308004264B1F1805F16D004D8C1B1FE
S214082270B1F1006F0AD013E0B1F1405F11D0B1F1AF
S214082280605F0ED0B1F1205F0AD17047036F016F0F
S2140822900B4023EA0203036702E0036F1343036756
S2140822A042607047416412F0010F14BF4166016630
S2140822B012F00A0F14BF0162416212F0020F02D038
S2140822C0C0F8801004E012F0080F18BFC0F8841099
S2140822D041610160704700BF10B44164019C0CB1B5
S2140822E0416600E001660BB1016500E041650AB190
S2140822F0016300E04163016101605DF8044B7047CB
S214082300C06C7047806C704770B582B00D46430944
S21408231003F5001303F207735C0201F0F043B3F110
S214082320205F30D006D8B3F1006F0AD0B3F1805FD3
S21408233018D049E0B3F1405F30D0B3F1605F2DD0DC
S21408234042E000F01F000126864020464FF000615C
S21408235032461F4B984715F0010F14BF666626666F
S214082360012032E000F01F000126864020464FF08C
S21408237080513246164B984715F0010F14BF666613
S2140823802666012021E000F01F030126204606FAF3
S21408239003F12A460F4B9847304616E000F01F0315
S2140823A0012605F0605205EA06010091204606FA65
S2140823B003F1B2F1605F14BF00220122C5F3800367
S2140823C0054CA047304600E0002002B070BD00BFB4
S2140823D065220800A5220800D922080070B582B038
S2140823E006460D46144602F0F043B3F1205F26D0A9
S2140823F006D8B3F1006F0AD0B3F1805F13D034E08B
S214082400B3F1405F1FD0B3F1605F1CD02DE04FF0F2
S21408241000612A46164B984714F0010F14BF7566DC
S2140824203566012022E04FF080512A46104B984727
S21408243014F0010F14BF75663566012016E00D4BC3
S2140824409847012012E004F0605204F0010300935C
S21408245030462946B2F1605F14BF00220122C4F359
S2140824608003054CA047012000E0002002B070BDA4
S21408247065220800A5220800D92208002DE9F041A7
S214082480044688460E4B9847054620460D4B984707
S214082490054013D00C4C04F160062368434508D168
S2140824A06168294205D0E36840469847636825EA8C
S2140824B00305B44202D01034002DEED1BDE8F081F9
S2140824C00123080005230800388C072008B50248B1
S2140824D00B21024B984708BD000E0E407D240800CD
S2140824E008B502480C21024B984708BD00100E405C
S2140824F07D24080008B502480D21024B984708BD00
S21408250000120E407D24080008B502480E21024B32
S214082510984708BD00140E407D240800184A136B1F
S21408252023F0700318431063936E13F0080F03D05C
S21408253009E0013B03D11EE04FF4006310498A6EA0
S21408254012F0080FF5D00E4A136B23F0030343F07E
S21408255002031363906E10F0080004D00020704742
S214082560013B03D109E04FF4006305498A6E12F077
S214082570080FF5D07047012070470120704700BF4C
S21408258000060E4038B111490B6A114A1A40114B21
S21408259013430B6270470D4A136A23F45C1323F047
S2140825A0030343F45C1343F00103090289B20B43A7
S2140825B01362936E13F0010FFBD0044A136A43F0BC
S2140825C09B7343F480331362704700BF00060E40C7
S2140825D0FCFFC8FE02003701024B986E00F48030FC
S2140825E0704700BF00060E404FF00052014B9A623B
S2140825F0704700BF00060E40024B986E00F00200BF
S214082600704700BF00060E402C281ED81F280CD87E
S214082610114B9A69012383401A40934217D001232D
S21408262083400D4A1361002070470B4BD3F80821EE
S2140826302038012383401A4093420AD0012383405E
S214082640054AC2F800310020704701207047002074
S21408265070470020704700BF00060E40FEE700BF28
S21408266008B51F4B1F4A9A4203D01F4B1C4A9A4272
S21408267004D31E4B1E4A9A4210D31BE018490A1D63
S2140826801C4B9B1A23F003030433164A134452F8D0
S214082690040B41F8040B9A42F9D1EAE7164B174A9D
S2140826A0D21A22F003021A44043B002143F8041B02
S2140826B09342FBD1124B23F0604222F07F0211496D
S2140826C08A6003F16043B3F5801F03D28B6843F03A
S2140826D000538B600C4B98470C4B9847FEE700BF9F
S2140826E00000072048650800A8090720D48D0720A1
S2140826F0A8090720AB090720AC090720D78D0720B3
S2140827000000080000ED00E0B92F08007D2808004A
S2140827103E4B1B6B03F00303032B5FD8DFE803F085
S214082720020E2B2B3A4B5B6913F0800F14BF4FF445
S21408273000424FF4FA42374B1A604FE0334B1B6A9D
S21408274013F0807F03D0344A324B1A6046E0334A8F
S214082750304B1A602D4B1B6A03F07003102B02D007
S214082760202B04D03AE02E4A2A4B1A6036E02A4A32
S214082770284B1A6032E0254B1B6A13F0807F03D083
S214082780254A244B1A6012E0244A224B1A601F4B33
S2140827901B6A03F07003102B02D0202B04D006E02F
S2140827A01F4A1C4B1A6002E01B4A1A4B1A60174B4A
S2140827B01B6B03F00303022B0DD1144A936A926A2B
S2140827C01448C3F30A41036801FB0333D2B2B3FBD0
S2140827D0F2F3036002E0134A0E4B1A600B4B1B6BB6
S2140827E003F07003702B07D10A4A13680E49A1FB41
S2140827F003135B0813607047044B1A6B0549C2F352
S21408280002120B68D3400B60704700BF00060E40EC
S214082810101A0E4038010720001BB70000093D00BB
S21408282000127A00001C4E0EABAAAAAA094B1B6817
S21408283013B9094A074B1A60064B1B681A1807494A
S214082840914204DB1046034A1060184670474FF062
S214082850FF307047A88C0720D8AD0720FC7F0820DB
S2140828604FF0FF30704700BF4FF400534B60002016
S214082870704700BF012070470020704730B585B00C
S214082880284B9847284B9847284B98470B20284CA6
S214082890A0470C20A0470D20A0470E20A047254B98
S2140828A09847254B9847254B4FF080625A61C3F8E6
S2140828B0A020234A4FF480011161C2F8A01051638A
S2140828C04FF000621A61C3F8A0201A631D4B9847A0
S2140828D00120002103221C4B98471C4B186020B18E
S2140828E000210A460B461A4CA047012300930024F1
S2140828F0019402940394174817494FF4007223462C
S214082900164DA84702230093019402940394144892
S21408291014494FF400722346A847134B984720469D
S21408292005B030BD91210800F5210800B50708005C
S21408293009260800510108002503080000100E406B
S21408294000120E40F50608002D0D08003C01072071
S214082950850D0800AD0308008063080049110800CB
S2140829606D0408008C6308004D13080080F00040D2
S21408297002E000BF81F0004142001FBF5FEA41034A
S21408298092EA030F7FEA226C7FEA236C6AD04FEA4A
S2140829901262D2EB1363C1BFD2184140484041408F
S2140829A0B8BF5B42192B88BF704710F0004F40F441
S2140829B0000020F07F4018BF404211F0004F41F45D
S2140829C0000121F07F4118BF494292EA030F3FD029
S2140829D0A2F1010241FA03FC10EB0C00C3F120033C
S2140829E001FA03F100F0004302D5494260EB4000CB
S2140829F0B0F5000F13D3B0F1807F06D340084FEA36
S214082A00310102F10102FE2A51D2B1F1004F40EB2A
S214082A10C25008BF20F0010040EA03007047490092
S214082A2040EB000010F4000FA2F10102EDD1B0FA5D
S214082A3080FCACF1080CB2EB0C0200FA0CF0AABF52
S214082A4000EBC25052421843BCBFD04018437047F0
S214082A5092F0000F81F4000106BF80F400000132F6
S214082A60013BB5E74FEA41037FEA226C18BF7FEACD
S214082A70236C21D092EA030F04D092F0000F08BF0F
S214082A800846704790EA010F1CBF0020704712F0F6
S214082A907F4F04D1400028BF40F00040704712F135
S214082AA000723CBF00F50000704700F0004343F09A
S214082AB0FE4040F4000070477FEA226216BF0846D0
S214082AC07FEA23630146420206BF5FEA412390EA93
S214082AD0010F40F4800070474FF0000304E000BF89
S214082AE010F0004348BF40425FEA000C08BF70473A
S214082AF043F0964301464FF000001CE050EA0102FE
S214082B0008BF70474FF000030AE000BF50EA010212
S214082B1008BF704711F0004302D5404261EB4101FF
S214082B205FEA010C02BF84460146002043F0B64324
S214082B3008BFA3F18053A3F50003BCFA8CF2083A49
S214082B40A3EBC25310DB01FA02FC634400FA02FC52
S214082B50C2F12002BCF1004F20FA02F243EB020059
S214082B6008BF20F00100704702F1200201FA02FCBB
S214082B70C2F1200250EA4C0021FA02F243EB0200AE
S214082B8008BF20EADC7070474FF0FF0C1CEAD052F2
S214082B901EBF1CEAD15392EA0C0F93EA0C0F6FD0B3
S214082BA01A4480EA010C400218BF5FEA41211ED091
S214082BB04FF0006343EA501043EA5111A0FB01317D
S214082BC00CF00040B1F5000F3EBF490041EAD37152
S214082BD05B0040EA010062F17F02FD2A1DD8B3F1CE
S214082BE0004F40EBC25008BF20F00100704790F03D
S214082BF0000F0CF0004C08BF49024CEA502040EA8F
S214082C0051207F3AC2BFD2F1FF0340EAC250704754
S214082C1040F400004FF00003013A5DDC12F1190F92
S214082C20DCBF00F000407047C2F10002410021FA04
S214082C3002F1C2F1200200FA02FC5FEA310040F11C
S214082C40000053EA4C0308BF20EADC70704792F095
S214082C50000F00F0004C02BF400010F4000F013ACD
S214082C60F9D040EA0C0093F0000F01F0004C02BFC8
S214082C70490011F4000F013BF9D041EA0C018FE737
S214082C800CEAD15392EA0C0F18BF93EA0C0F0AD03D
S214082C9030F0004C18BF31F0004CD8D180EA010063
S214082CA000F00040704790F0000F17BF90F0004FFC
S214082CB0084691F0000F91F0004F14D092EA0C0FDE
S214082CC001D142020FD193EA0C0F03D14B0218BF71
S214082CD0084608D180EA010000F0004040F0FE40B7
S214082CE040F40000704740F0FE4040F44000704753
S214082CF04FF0FF0C1CEAD0521EBF1CEAD15392EAD2
S214082D000C0F93EA0C0F69D0A2EB030280EA010CC1
S214082D1049024FEA402037D04FF0805343EA11115A
S214082D2043EA10130CF000408B4238BF5B0042F1B8
S214082D307D024FF4000C8B4224BF5B1A40EA0C005D
S214082D40B3EB510F24BFA3EB510340EA5C00B3EB8F
S214082D50910F24BFA3EB910340EA9C00B3EBD10F7D
S214082D6024BFA3EBD10340EADC001B0118BF5FEACF
S214082D701C1CE0D1FD2A3FF650AF8B4240EBC250F8
S214082D8008BF20F0010070470CF0004C4CEA5020B9
S214082D907F32C2BFD2F1FF0340EAC250704740F408
S214082DA000004FF00003013A37E792F0000F00F0FA
S214082DB0004C02BF400010F4000F013AF9D040EA78
S214082DC00C0093F0000F01F0004C02BF490011F40C
S214082DD0000F013BF9D041EA0C0195E70CEAD15304
S214082DE092EA0C0F08D142027FF47DAF93EA0C0FEB
S214082DF07FF470AF084676E793EA0C0F04D14B02CF
S214082E003FF44CAF08466EE730F0004C18BF31F080
S214082E10004CCAD130F000427FF45CAF31F000437A
S214082E207FF43CAF5FE700BF4FF0FF3C06E000BF13
S214082E304FF0010C02E000BF4FF0010C4DF804CD36
S214082E404FEA40024FEA41037FEA226C18BF7FEA46
S214082E50236C11D001B052EA530C18BF90EA010F48
S214082E6058BFB2EB030088BFC81738BF6FEAE170D7
S214082E7018BF40F0010070477FEA226C02D15FEA73
S214082E80402C05D17FEA236CE4D15FEA412CE1D0DF
S214082E905DF8040B704700BF844608466146FFE7A6
S214082EA00FB5FFF7C9FF002848BF10F1000F0FBD88
S214082EB04DF808EDFFF7F4FF0CBF012000205DF881
S214082EC008FB00BF4DF808EDFFF7EAFF34BF012006
S214082ED000205DF808FB00BF4DF808EDFFF7E0FF9F
S214082EE094BF012000205DF808FB00BF4DF808EDF0
S214082EF0FFF7D2FF94BF012000205DF808FB00BF53
S214082F004DF808EDFFF7C8FF34BF012000205DF834
S214082F1008FB00BF42000ED2B2F1FE4F0BD34FF0B3
S214082F209E03B3EB126209D44FEA002343F0004332
S214082F3023FA02F070474FF00000704712F1610F55
S214082F4001D1420202D14FF0FF3070474FF0000027
S214082F50704700BF00210A2200F0D6BAF8B50F461F
S214082F6005460C460F4E07E00B685A1C0A60187890
S214082F700A2811D004F8010B336859684B68013BDE
S214082F80002B4B60F0DA284600F030F90A2803D008
S214082F90431CEFD1A74203D0002323703846F8BD60
S214082FA00020F8BD68050720024B01461868FFF7A1
S214082FB0D5BF00BF6805072070B50F4E0F4D761BAE
S214082FC0B61018BF002405D0013455F8043B9847BE
S214082FD0A642F9D10A4E0B4D03F0A0FA761BB6109E
S214082FE018BF002406D0013455F8043B9847A6427B
S214082FF0F9D170BD70BD00BF2865080028650800B7
S21408300030650800286508000FB410B5074B82B075
S21408301004AC54F8042B186823468168019400F021
S214083020FBFA02B0BDE8104004B0704768050720F8
S214083030931E222B10D80A2A10B506D000230C4659
S214083040194400F06DFA204610BD0028F6DA2D2344
S2140830500B7040420123F2E700200870704700BF5B
S214083060FFF7E6BF844641EA000313F0030349D19D
S214083070403A23D30B6803604B6843608B688360D1
S214083080CB68C3600B6903614B6943618B698361D5
S214083090CB69C3610B6A03624B6A43628B6A8362BD
S2140830A0CB6AC3620B6B03634B6B43638B6B8363A5
S2140830B0CB6BC36340304031403ADBD230320BD35F
S2140830C00B6803604B6843608B688360CB68C3609B
S2140830D010301031103AF3D20C3205D351F8043BB5
S2140830E040F8043B043AF9D2043208D0D2071CBF91
S2140830F011F8013B00F8013B01D30B8803806046BA
S214083100704700BF082A13D38B07B1D010F003030B
S214083110AED0C3F10403D21ADB071CBF11F8013B7B
S21408312000F8013BA4D331F8023B20F8023B9FE7A6
S214083130043AD9D3013A11F8013B00F8013BF9D219
S2140831400B7803704B7843708B78837060467047B3
S21408315070B4840746D0541E002A41D0CDB2034628
S21408316002E0621EE4B3144603F8015B9A07F8D13E
S214083170032C2ED9CDB245EA05250F2C45EA054580
S21408318019D9264603F11002103E0F2E42F8105C9D
S21408319042F80C5C42F8085C42F8045C02F1100243
S2140831A0F2D8A4F1100222F00F0204F00F04103235
S2140831B0032C13440DD91E462246043A032A46F821
S2140831C0045BFAD8221F22F003020432134404F0E8
S2140831D003042CB1C9B21C4403F8011BA342FBD15B
S2140831E070BC704714460346C2E700BF38B50C46A5
S2140831F0054608B1836B63B12846214602F04EFBAC
S21408320050B994E80C00013B511C84E80A00107879
S21408321038BD01F003FAEFE74FF0FF3038BD00BFC6
S21408322000290CBF022200224FF4806300F000B889
S2140832302DE9F0413A4D04462E6890460D461F4645
S21408324016B1B36B002B3CD0B8F1020F2FD8002F65
S2140832502DDB2146304601F03BF9A1890023636047
S214083260A3610B0627D421F0830189B2B8F1020FB7
S214083270A1812AD0002D36D0B8F1010F11D089B21D
S21408328001F00800274B80B2F3632560256167616B
S21408329078B111F0030F18BF00270020A760BDE81B
S2140832A0F08141F001017B42A181A361E7E74FF07D
S2140832B0FF30BDE8F0812169304601F087FAA18920
S2140832C0D1E7304601F0AAF9BEE7002004F143032F
S2140832D041F0020100250122A181A5602360236137
S2140832E06261BDE8F081002F08BF4FF4806738465A
S2140832F001F09AFD054628B1A18941F0800189B2FE
S214083300A181B9E74FF4806001F08EFD054618B933
S214083310A1894FF0FF30D9E74FF48067ECE700BF8C
S214083320680507202145080020F0030110F0030077
S214083330C0F1000051F8043B00F1040C4FEACC0C35
S2140833406FF000021CBF22FA0CF213434FF0010C78
S2140833504CEA0C2C4CEA0C4CA3EB0C0222EA0302B7
S21408336012EACC1204BF51F8043B0430F4D0C2F180
S214083370000102EA0102B2FA82F2C2F11F0200EB71
S214083380D200704740EA01039B0770B42BD1032A8A
S21408339029D90C460346214654F8046BA6F1013594
S2140833A025EA060515F0803F05D1043A032A43F8B6
S2140833B0046B2146EFD8A2B10C78013A1C70013193
S2140833C001333CB16AB111F8014B013A03F8014BDD
S2140833D0002CF7D12AB11A44002103F8011B9342A6
S2140833E0FBD170BC70470346E5E700BF2DE9F04FF8
S2140833F0444C83460E46D4F800E000E026463446A1
S21408340014F8015B0EEB0500407800F0080000F0A9
S214083410FF080028F2D12D2D4BD02B2D04BF757830
S214083420B41C1BB1102B60D09A4603E0302D54D044
S2140834300A239A46B8F1000F14BF4FF000406FF009
S2140834400040B0FBFAF90027BC460AFB19000CE05E
S214083450303DAB4219DD7E1C05D0CC4524D821D0A2
S2140834600AFB0C5C012714F8015B0EEB0506767860
S21408347016F0040FECD116F0030606D0012E0CBF8A
S21408348037265726AD1BAB42E5DC7B1C16D0C8F1A9
S21408349000008CEA000040444AB107B1611E116082
S2140834A0BDE8F08F8542DBDD4FF0FF37DBE7BDE890
S2140834B0F08FB41C75784FF00108B2E7B8F1000F2A
S2140834C04FF0220314BF4FF000406FF00040CBF8D7
S2140834D00030002AE2D1BDE8F08F237803F0DF033E
S2140834E0582B09D008239A46A4E7302D9CD120787B
S2140834F000F0DF00582897D14FF0100A6578534639
S214083500023497E76C05072030B40D46034C134683
S21408351001462A46206830BCFFF768BF68050720C2
S214083520F0B58BB06F461546DFF870E004460E46D9
S214083530BEE80F000FC7BEE80F000FC79EE80300DF
S214083540AB1E47F8040B222B397022D8711E08468A
S214083550002300E01346B4FBF5F205FB12440AAF5D
S2140835603C4414F8287C144600F8017F5A1C002CAA
S214083570F0D1B454F2184BB1013411F8015F177842
S214083580181B84420F7002F80159F5DB30460BB061
S214083590F0BD002030700BB0F0BD00BFA06308007F
S2140835A04B6E2DE9F0479C040F4692462BD5936840
S2140835B0126833B3804602F1080919E96000B608B4
S2140835C017D0043D002401E0A64210D0404655F826
S2140835D0041F3A4601F09AF8431C04F10104F3D19B
S2140835E00023CAF80830CAF80430BDE8F087DAF8CD
S2140835F00830A3EB8603CAF8083009F10809002B3F
S214083600DBD10020ECE701F0B9F90023CAF808304E
S214083610CAF80430BDE8F0872DE9F04FABB01C4679
S214083620009193460493019018B1836B002B00F029
S214083630E380009B99898AB2900408D418465B6E8A
S21408364041F4005223F400538281436692B2110774
S21408365040F1B280009B1B69002B00F0AD8002F0A1
S2140836601A020A2A00F0B4800DF1680A54460023AC
S214083670099302930F930E93CDF834A09BF800306D
S214083680002B00F0A384252B00F0A0845A4601E006
S214083690252B03D012F8013F002BF9D1CBEB0206FD
S2140836A0154696B10E9B0F9A01333244072BC4F881
S2140836B000B066600F920E9379DD002A40F0AD8464
S2140836C05446029B0E92334402932B78002B00F04C
S2140836D05F834FF0000300214FF0FF3C8DF82F303A
S2140836E0681C6B7888460D46664600F1010BA3F108
S2140836F02002582A00F2AA82DFE812F09A02A802EC
S214083700A802A202A802A802A802A802A802A80262
S21408371054026002A8020D016C02A80229012F01BA
S2140837202F012F012F012F012F012F012F012F010C
S214083730A802A802A802A802A802A802A802A8022C
S214083740A802A8023D01A802A802A802A802A80288
S214083750A802A802A802A802A8027401A802A80241
S214083760A802A802A8028B01A802A802A301A80220
S214083770A802A802A802A802A802A802A802A802EC
S214083780A802C701DA01A802A802A8022301DA01E2
S214083790A802A8024B02A80288021301F401070235
S2140837A0A8020D02A8028100A802A8023202083464
S2140837B0029B3344029388E70198009900F072FD53
S2140837C0A8B9009B9A8902F01A020A2A7FF44CAF1D
S2140837D0009BB3F90E30002BFFF646AF0198009910
S2140837E05A46234600F020FD2BB0BDE8F08F4FF078
S2140837F0FF302BB0BDE8F08F00F010FF19E718F087
S214083800200F0395B44600F00C81049B073323F081
S214083810070303F10802D3E90067049201234FF077
S2140838200002E1468DF82F200025BCF1000FA8BF46
S21408383028F0800856EA070240F0C480BCF1000F62
S21408384000F08083012B00F0C580022B00F08683F1
S2140838505146F20842EA4772F80806F00703074698
S2140838601646303356EA070201F8013DF1D118F042
S214083870010F079140F0FA83C1EB0A09E1454E466D
S214083880B8BF664605B1013618F00203059318BF9F
S214083890023618F08403069340F0F981039B9D1BBB
S2140838A0002D40F3F481102D40F38A842046DDF87D
S2140838B038E064460F9AC44F10237146844607E0E2
S2140838C001F1020E01460CF1080C103D102D13DD17
S2140838D0481C103207280F92CCF80070CCF8043039
S2140838E00E90EDDD002A40F0C281103D102D1146E5
S2140838F04FF0010ED446EBDC63467146A4461C46E0
S2140839002A4407290F92276065600E9100F34683C4
S2140839100834481CBEE1584648F004089BF80030B6
S214083920E3E618F020030395B44662D0049B0733F9
S21408393023F0070303F10802D3E900670492002383
S2140839406DE748F040089BF800305846CDE648F04A
S21408395080089BF800305846C7E6A3F130020025D9
S2140839601BF8013B05EB850502EB4505A3F1300284
S214083970092AF5D9BBE648F0100818F0200F039579
S214083980B4468DF82F1000F09B800499073121F07B
S2140839900701D1E9002316461F4608310491002A7C
S2140839A073F10003C0F2A483BCF1000FA8BF28F08F
S2140839B0800856EA07029DF82F50E1464FF00103AB
S2140839C03FF43CAF012B7FF440AF002F08BF0A2E10
S2140839D080F032832AAB303603F8416DC3EB0A0910
S2140839E007934BE748F0100818F020030395B446F1
S2140839F09CD118F0100240F0F78218F0400300F04F
S214083A00F382049913460A4604320E880027049265
S214083A1005E748F0100818F0200F0395B4467FF421
S214083A20F4AE049A18F0100F134640F0E48218F02B
S214083A30400F00F0E0821688043200270123049223
S214083A40EDE6624A18F0200F0395B4468DF82F105D
S214083A50099200F08F80049A073222F0070202F1DA
S214083A6008010491D2E9006718F0010F00F08F8270
S214083A7056EA070200F08B8230228DF8313048F083
S214083A8002088DF830200223C9E6049A0126136836
S214083A904FF000018DF840301346B14604330493C6
S214083AA010AB03958DF82F1007934FF0000CEBE63C
S214083AB018F0200F0395B4468DF82F107FF465AFE5
S214083AC0049A18F0100F134640F0A08218F0400F22
S214083AD000F09C82B2F900600433F717049332466C
S214083AE03B465CE7049978238DF83130384BB4466A
S214083AF030220E6804310993039548F002080491B1
S214083B0000278DF83020022389E648F020089BF825
S214083B1000305846E9E54FF00001049A039513680B
S214083B20B44607938DF82F10151D002B00F04E8312
S214083B30002EC0F22983079E624630460021CDF843
S214083B4010C001F0FFFBDDF810C0002800F04E831F
S214083B500495C6EB00099DF82F504FF0000C8DE633
S214083B601B4A18F0200F0395B44609928DF82F10BB
S214083B707FF471AF049918F0100F0A4640F041829E
S214083B8018F0400F00F03D8204320E880027049299
S214083B906AE79BF800306C2B00F0E98248F01008C2
S214083BA05846A2E5049A134615680433002DC0F259
S214083BB0E68204939BF80030584696E59BF800305A
S214083BC058462B2191E500BF08640800D863080012
S214083BD0EC6308009BF800300BF101002A2B00F07C
S214083BE00F83A3F13002092A83464FF000063FF6FA
S214083BF07EAD1BF8013B06EB860602EB4606A3F1F4
S214083C003002092AF5D946EAE67670E518F0200F5C
S214083C108DF82F1000F08382049A13460433049319
S214083C20029B1168DF171A463B46C1E9002325E5C3
S214083C3058469BF8003000297FF457AD202154E5FC
S214083C4048F0010858469BF800304EE503958DF875
S214083C502F10002B00F09C808DF840304FF00003AA
S214083C6001268DF82F3010ABB14607931DE7019853
S214083C7000990DAA0893FFF793FC002840F08F8060
S214083C800E99D4460F9A01F1010E089B1DE60E996F
S214083C900F9A481C9DF82F306BB101320DF12F0397
S214083CA0012107280F920E902360616000F334818B
S214083CB0014608340130059B63B102320CA9022381
S214083CC007280F920E9084E80A0000F33481014614
S214083CD008340130069B802B00F0D480C9EB0C0713
S214083CE0002F2BDD102FAB4D1FDDA6461023019CA1
S214083CF007E001F1020C01460EF1080E103F102FE6
S214083D0011DD481C103207280F92CEF80050CEF866
S214083D1004300E90EDDD6ABB103F102F4FF0010CFB
S214083D201146D646EDDC744660463A4407280F929C
S214083D3084E8A0000E903BDC0834013002EB09034F
S214083D40079A07280F9384E804020E903DDD002B9F
S214083D5040F03F8118F0040F0E9340F03081029B2C
S214083D60039A9642ACBF9B199B18029300230E93A6
S214083D70544683E4204600990DAA0593FFF710FCE5
S214083D8068B90E99D6460F9A01F1010C059BB5E75E
S214083D900F9B23B1019800990DAAFFF701FC009B21
S214083DA09B895B063FF523AD02982BB0BDE8F08FE4
S214083DB0002A40F090814B46544607990122CDF8D8
S214083DC06C90CDF83C901A910E9204F1080218F007
S214083DD0040F39D003998D1B002D35DD102D40F3C7
S214083DE000820E986C4F1024DDF80480DDF80090F1
S214083DF006E000F1020E08460832103D102D10DDD0
S214083E00411C103307290F93176054600E91F0DD9C
S214083E10002B2AD1103D102D4FF0010E18465246A1
S214083E20EEDC2B44BEF1070F0F9317605560CDF8F4
S214083E3038E009DD002B92D0019800990DAAFFF70B
S214083E40AFFB0028ABD10F9B029A03998E42ACBFFA
S214083E50921952180292002B88D0019800990DAA40
S214083E60FFF79EFB002881D099E7404649460DAAF1
S214083E70FFF796FB002892D10E9852460F9B00F14A
S214083E80010EBAE7039B9F1B002F7FF727AF102F63
S214083E9040F3B38120463F4D64461023844607E02E
S214083EA001F1020E01460CF1080C103F102F11DD2F
S214083EB0481C103207280F92CCF80050CCF8043073
S214083EC00E90EDDDC2B9103F102F4FF0010E1146CF
S214083ED0D446EDDC6346A4461C463A44BEF1070FBA
S214083EE00F9284E8A000CDF838E000F3EE8008349E
S214083EF00EF101007146F1E6019800990DAA0593A6
S214083F00FFF74EFB00287FF44AAF0E99D4460F9A67
S214083F1001F1010E059BC8E7002A40F0C580059B05
S214083F20002B00F085800CAA02231A9208461B93E1
S214083F301A465446CBE6002A40F0A58001201146D2
S214083F405446C7E603BB18F0010F1DD02AAB302233
S214083F5003F8412DC3EB0A0907938FE4D146099865
S214083F60330943EA0773390906F00F020F461E465F
S214083F70835C09F8013D56EA0703F1D14B46CDF8B4
S214083F801C90C3EB0A0979E4CDF81CA076E402235A
S214083F9045E400BFC863080008640800002A40F02B
S214083FA0D5809DF82F30002B00F0AC8001230DF152
S214083FB02F0118461B931A461A91544678E6039A18
S214083FC0951B002D52463FF709AFC8E65D46FFF73A
S214083FD07CBB019800990DAAFFF7E2FA00287FF447
S214083FE0DEAE52460F9BF2E6049900270A460432D4
S214083FF00E68049213E404321E6800270123049214
S2140840000DE416680432049200272DE51E68043372
S214084010F717049332463B46C1E4019800990DAA67
S214084020FFF7BEFA00287FF4BAAE5446FFF7C0BBC7
S2140840300846544611464DE6D146CDF814C03046DB
S21408404039460A22002301F099FE303230463946B6
S21408405009F8012D00230A2201F090FE06460F46B5
S21408406056EA0703EBD1DDF814C087E7302B079B29
S21408407087D0013B1A4607933023C2EB0A0901F89A
S214084080013CFFF7FBBB019800990DAACDF814C0B8
S214084090FFF786FA00287FF482AE0E9954460F9AE8
S2140840A0481CDDF814C015E6019800990DAACDF84D
S2140840B020C0FFF775FA00287FF471AE0E995446B3
S2140840C00F9A481CDDF820C0F5E5002A67D10120C4
S2140840D01146544602E6019800990DAAFFF760FAC1
S2140840E000287FF45CAE0E9854460F9A013025E6F9
S2140840F02D25764267EB47078DF82F50E1460123BA
S214084100FFF793BB059B114601205446002B3FF44E
S214084110E5AD0CAA02238AE80C001A46D7E518F083
S214084120100F0BD118F0400F08D0049A1368043209
S2140841300492BDF808201A80FFF7A0BA049A1368FC
S21408414004320492029A1A60FFF798BA0198009906
S2140841500DAACDF820C0FFF723FA00287FF41FAE7B
S2140841600E9954460F9A481CDDF820C092E548F090
S21408417020080BF101009BF80130FFF7B6BA6D4234
S21408418004935846FFF7C8BB07980495FFF7CCF882
S2140841909DF82F5081464FF0000CFFF76FBB019833
S2140841A000990DAACDF814C0FFF7FAF900287FF495
S2140841B0F6AD0E9954460F9A481CDDF814C08DE5E6
S2140841C00E990F9A0131154FFFF79ABB062E144B1E
S2140841D028BF4FF0060CE14604952CEAEC760793C8
S2140841E063E40E990D4F01F1010E1AE6E1460495B7
S2140841F084469DF82F50FFF741BB8646094D6CE66E
S214084200049A9BF8013016680432002E0492BFF612
S2140842106CAA4FF0FF36FFF768BA00BF08640800BC
S21408422000640800C86308002DE9F04588464F6E0C
S214084230ADF26C4D1997D8F81C70B1F80CE0B1F8CF
S2140842400EA00797D8F824701AAC4FF480652EF0A5
S214084250020E002669460094049402950595ADF86A
S2140842600CE0ADF80EA0099706960546FFF7D4F9B8
S214084270041E07DB2846694600F02AF9B04218BF34
S2140842804FF0FF34BDF80C305B0605D5B8F80C3097
S21408429043F04003A8F80C3020460DF26C4DBDE8FC
S2140842A0F08500BF38B52F4B054618680C4610B188
S2140842B0836B002B36D0A28993B218070CD52069D9
S2140842C0A8B113F001021ED0636900225B42A36105
S2140842D0A260F0B1002038BDD9063AD5580724D4D4
S2140842E0206942F00803A3819BB20028E9D103F4B1
S2140842F02072B2F5007FE4D02846214600F024FD5F
S214084300A3892069DDE7990758BF6269A26000287B
S214084310E0D1A3891A06DED543F04003A3814FF007
S214084320FF3038BD00F07AF9C5E7216B49B104F1D2
S2140843304003994203D0284600F048FAA289002391
S2140843402363206922F02402002392B284E809003D
S214084350C7E742F0400209232B604FF0FF30A281E6
S21408436038BD00BF68050720024B13B1024800F0AD
S21408437005B87047000000003146080001460020D6
S2140843800246034601F006BC8B892DE9F0419AB235
S2140843900D46110780463CD46A6843F40063002A39
S2140843A0AB8165DDAE6A002E4BD09BB203F480521B
S2140843B0002192B2D8F80040C8F80010002A5BD056
S2140843C02A6D5F0705D569682B6B521A0BB1EB6B24
S2140843D0D21A4046E9690023B047461C56D0AB8936
S2140843E02A6923F400639BB200212A60DA04AB81B1
S2140843F069603BD4296BC8F8004011B305F1400347
S214084400994202D0404600F0E1F900202863BDE852
S214084410F0812E69AEB191072C680CBF6B6900233A
S2140844202E60A41BAB600AE0324623466F6A4046FD
S214084430E969B8470028A4EB0004064404DD002C0C
S214084440F2DC0020BDE8F081AB894FF0FF3043F086
S2140844504003AB81BDE8F081AB892A6923F4006389
S2140844609BB2AB81DB0469602A60C3D52865C1E7C7
S214084470EA6B002A96DCE4E701234046E969B04780
S214084480431C024619D0AB89AE6A9AE7D8F80010E2
S2140844900029E1D01D2907D0162905D0AB8943F09D
S2140844A04003AB81BDE8F081AB89296923F400633A
S2140844B00022AB8185E806009CE7D8F80030002B80
S2140844C0E1D01D2B01D0162BBED1C8F80040B8E7A6
S2140844D010B5044682B008B1836B53B1B1F90C002D
S2140844E008B902B010BD204602B0BDE81040FFF77C
S2140844F04BBF019100F092F80199EFE720B1054B08
S21408450001461868FFF7E4BF034B0449186800F033
S214084510E9BB00BF680507209C630800D144080073
S214084520014900F0DFBB00BF5D5C08002DE9F04FD5
S214084530074635487D68002407F53B7204230321A7
S214084540F863C7F8E412C7F8E822C7F8E04283B071
S2140845502C606C60AC606C66EC812C616C61AC6144
S214084560AB81214605F15C000822FEF7F1FDDFF875
S2140845709CB0BE68DFF898A0DFF89890DFF89880BF
S21408458001230922C5F820B0C5F824A0C5F828904C
S214084590C5F82C80ED612146F381B28106F15C00F6
S2140845A034607460B460746634617461B4610822FF
S2140845B00193FEF7CDFDFD6812200222F661C6F8CB
S2140845C020B0C6F824A0C6F82890C6F82C80214645
S2140845D0A881EA812C606C60AC606C662C616C61AA
S2140845E0AC6105F15C000822FEF7B2FD019BED61A7
S2140845F0C5F820B0C5F824A0C5F82890C5F82C80C2
S214084600BB6303B0BDE8F08F21450800D159080008
S214084610F55908002D5A08004D5A0800836B03B157
S2140846207047FFF783BF00BF704700BF704700BFE3
S21408463038B5084B084DED1AAC1018BFED1805D064
S214084640013C55F8043D9847002CF9D1BDE83840A0
S21408465001F06EBF3C650800406508002DE9F04192
S21408466082B007460E46144600F068FB012840D084
S214084670384601A9324604F15C0301F03FFAB0F16E
S214084680FF3F80462ED000283BD09DF8041000251A
S21408469009E0236819702368013323600135A845AB
S2140846A02FD901AB595DA368013B002BA360F0DA54
S2140846B0A269934206DB23681970236819780133C8
S2140846C00A29EAD13846224601F0C4F9A0F1FF309B
S2140846D0B0FA80F040090028E0D04FF0FF3002B072
S2140846E0BDE8F081A38943F04003A38102B0BDE88A
S2140846F0F081731EFE2BBBD8F1B280468DF80410ED
S214084700C5E7304602B0BDE8F08100BF938913F4D0
S214084710005F0BD110B4546E43F4005344F40054B5
S214084720546693815DF8044BFFF798BFFFF796BF72
S214084730F8B50C46224F064600F0B2FEBB685D6828
S21408474025F00305291B01F6EF7121F47F6121F09E
S2140847500F01A1F58054B4F5805F07DB30460021D1
S21408476001F024F9BB682B44984204D0304600F088
S21408477099FE0020F8BD3046614201F017F9013075
S2140847800DD0104BBA6819682D1B45F00105304648
S214084790091B5560196000F085FE0120F8BD3046FB
S2140847A0002101F003F9BA68831A0F2BDEDD064CE8
S2140847B00449246843F00103001B53600860D5E7EA
S2140847C094050720888D0720A009072000294ED0C9
S2140847D02DE9F0410C46804600F062FE54F8047C51
S2140847E06249A4F1080527F00102AB188E685868DC
S2140847F09E4220F003005AD0FE0758600BD454F8A7
S214084800087C01F1080EED1BAC683A44744567D085
S214084810EF68E760BC601C186468E4070CD4544F63
S2140848209C680244BC427CD0D86842F00103E06031
S21408483084606B60AA5003E042F001036B60AA50E4
S214084840B2F5007F14D2D20801EBC20301244868EF
S214084850921004FA02F29C681043AC60EB60486061
S2140848609D60E5604046BDE8F04100F01BBE70471D
S214084870530A042B47D8930903F13804600001EB68
S214084880800083683949834243D0596821F0030180
S214084890914202D99B689842F7D1DA68EA60AB6021
S2140848A040469560DD60BDE8F04100F0FBBDFF07BF
S2140848B0024407D454F8084C2D1BEB68A868224419
S2140848C0C36098602B4B42F001001B6868609A42F0
S2140848D08D60C7D3284B40461968FFF729FFC1E704
S2140848E019184968C90709D4D96802449B6842F070
S2140848F00100D9608B606860AA50B3E742F00103F4
S2140849006B60AA50AEE7142B14D803F15B04600062
S214084910B5E74A68A4100120A04002434A601A4638
S214084920BCE742F001034D610D61EC60AC606B6062
S214084930AA5097E7542B04D8130B03F16E046000B3
S2140849409DE7B3F5AA7F04D8D30B03F1770460007C
S21408495095E740F25450834204D8930C03F17C0444
S21408496060008CE7FC207E2489E700BF94050720BA
S2140849709C0507209C090720848D07209368002B38
S21408498000F0B1802DE9F04FB1F80CE083B01EF0CE
S214084990080F0C468146164628D00B6933B30EF02E
S2140849A002081FFA88F0356880B34FF0000BD84627
S2140849B0DFF8E4A2B8F1000F00F08F80D045434638
S2140849C0484628BF5346E1695A46676AB8470028EA
S2140849D040F3A880B36883441B1AC0EB0808B3608A
S2140849E0002BE7D1002003B0BDE8F08F48462146EB
S2140849F0FFF758FC002840F04681B4F80CE035680C
S214084A000EF002081FFA88F00028CED11EF0010B1F
S214084A1040F09180D846B8F1000F58D01EF4007FB9
S214084A20A76862D0B845BA46C0F0C2801EF4906F38
S214084A3000F0C08067692169236807EB47075B1A9F
S214084A4007EBD777581C7F10404487423A463CBF4E
S214084A5007463A461EF4806F009300F0FB80114626
S214084A60484600F0E9F9009B8246002800F00E81CF
S214084A701A4621690093FEF7F5FAA289009B22F4EC
S214084A80906242F08002A2810AEB0300C4F810A0EC
S214084A90FB1A6761C24647462060A36052465946DD
S214084AA000F09AFCA0682268C01BA060404602EB93
S214084AB00A032360B36883441B1AC0EB0808B36074
S214084AC0002B8FD0B4F80CE0B8F1000FA6D1D5F8BB
S214084AD000B0D5F8048008359DE7D5F800B0D5F8BD
S214084AE00480083566E700207047206823699842E6
S214084AF003D86269904580F08580474528BF4746B9
S214084B0059463A4600F068FCA3682268DB1B3A441C
S214084B10A3602260002B49D148462146FFF7D8FCFF
S214084B20002843D0A38943F040034FF0FF30A38109
S214084B3003B0BDE8F08F8046834682460090BAF1FF
S214084B40000F2BD0009B002B4FD0D045434628BFE4
S214084B505346206821691F468842D4F808E06269EF
S214084B6003D90EEB020C63455EDC934224DB134646
S214084B70676A4846E1695A46B847071ED2DDB8EB69
S214084B80070829D0B368BB44DB1BC7EB0A0AB36027
S214084B90002B3FF427AFBAF1000FD3D10023D5F886
S214084BA000B0D5F804A000930835C8E7384681E772
S214084BB04746C246206871E71A465946019300F0F0
S214084BC00BFCA2682168019BB8EB0708A2EB03025E
S214084BD00B44A2602360D5D148462146FFF778FCEF
S214084BE000289FD1CDF80080CCE758460A215246C7
S214084BF000F0A8FB002841D001300123CBEB0008C9
S214084C000093A2E76FF00043434528BF434693FB53
S214084C10F2F3676A03FB02F34846E1695A46B84767
S214084C2000283FF747AF7DE762465946CDF804C0EF
S214084C3000F0D2FB2368DDF804C0484663442360CE
S214084C402146FFF745FCDDF804C000287FF46AAF6C
S214084C50674694E7484600F027FC009B82460028F3
S214084C607FF412AF48462169FFF7B0FDA3890C22EE
S214084C7023F080039BB2C9F8002054E701230AF109
S214084C800108009361E74FF0FF30ACE60C23C9F843
S214084C900030A38947E700BF00FCFF7F2DE9F041FD
S214084CA010F538771AD0884600267D68BC68013D1E
S214084CB00ED4A389013D012B06D9B4F90E30013371
S214084CC002D02046C04706436B1C04F16804F0D1A6
S214084CD03F68002FE9D13046BDE8F0813E463046B1
S214084CE0BDE8F0812DE9F84310F538761ED08846E1
S214084CF007464FF000097568B468013D10D4A389CB
S214084D00013D012B08D9B4F90E30013304D03846DA
S214084D102146C04749EA00096B1C04F16804EED135
S214084D203668002EE7D14846BDE8F883B1464846BF
S214084D30BDE8F8830048704770050720014B1868DF
S214084D40704700BF900507208B899AB212F0020FB1
S214084D503CD1F0B50C46B1F90E1091B000290546C5
S214084D6019DB01AA00F0BCFF002812DB029B03F443
S214084D707043A3F50057B7FA87F7B3F5004F4FEA25
S214084D8057172AD0A3894FF4806643F40063A3819B
S214084D900BE0A3899AB212F0800F43F40063A38154
S214084DA00CBF4FF48066402600272846314600F0A0
S214084DB043F8A38940B31A4A43F08003EA63A38101
S214084DC02060206166619FB911B0F0BD01F1430310
S214084DD001220B600B614A617047124BA26A9A4225
S214084DE0D0D1A3894FF480663343A381E664DCE719
S214084DF02846B4F90E1000F087FF0028E4D0A389EF
S214084E0043F00103A381DFE79A05DDD404F14302EA
S214084E1043F002030121A381226022616161D3E786
S214084E20214508002D5A0800024B0146186800F074
S214084E3003B800BF680507202DE9F04F01F10B0500
S214084E40162D83B0064627D935F0070500F1B6803B
S214084E50A94200F2B38000F023FBB5F5FC7F22D20E
S214084E60BC4FE80807EBC003DC689C4200F0BC8136
S214084E706368E16823F0030323445A68A56842F090
S214084E800102E96030468D605A6000F00BFB08347A
S214084E90204603B0BDE8F08F102900F28F8000F09E
S214084EA0FFFA1025DCE7680A00F08F80042800F275
S214084EB04781A80938304100A64F07EB8101CC6826
S214084EC0A14206D10CE0002A80F28280E468A14262
S214084ED006D0636823F003035A1B0F2AF3DD013854
S214084EE001309C493C6901F1080E744500F0718157
S214084EF0636823F003035A1B0F2A00F35781002A1E
S214084F00C1F814E0C1F810E066DAB3F5007F80F067
S214084F102D81DB0801EBC3084FEAA30C4A6801237E
S214084F2003FA0CF3D8F808C01343C4F808C0C4F84A
S214084F300C804B60C8F80840CCF80C40821001245E
S214084F4094409C4255D8234206D120F003006400C2
S214084F50234200F10400FAD007EBC008C446814695
S214084F60DCF80C309C4507D135E1002980F24581F4
S214084F70DB689C4500F02F815A6822F00302511B1B
S214084F800F29F2DD1C46DA6854F808CF45F0010907
S214084F9041F001081D44C3F804903046CCF80C20B4
S214084FA0C2F808C07D613D61C5F80CE0C5F808E0A8
S214084FB0C5F80480695000F075FA69E700242046B1
S214084FC00C23336003B0BDE8F08F7E213F2073E7E3
S214084FD023445A68E16851E723445A68304642F049
S214084FE001025A60083400F05DFA204603B0BDE8B6
S214084FF0F08FBC68636823F00308454504D8C5EB02
S21408500008030F2B00F38C80534BDFF85CA11A685B
S214085010DAF800302A44013304EB080B00F051811B
S21408502002F580520F3222F47F6222F00F021146F8
S2140850303046019200F0BAFCB0F1FF3F8146019A73
S21408504000F04881834500F2EF80444BCB45196851
S2140850501144196000F04381DAF80000DFF808E12F
S21408506001301BBFCBEB090B5944CEF800901960F2
S21408507019F0070100F00881C1F10800C1F5805158
S214085080814408314A44C2F30B02C2EB010A514676
S2140850903046019300F08AFC431C019B00F02D81EA
S2140850A0C9EB0002524442F001021968BC4251445E
S2140850B0C7F808901960C9F80420DFF8A0A016D031
S2140850C0B8F10F0F40F2EF806268A8F10C0323F0E6
S2140850D0070302F00102E0184FF0050E1A430F2BE3
S2140850E06260C0F804E0C0F808E000F20A811C4BD1
S2140850F0BC681A68914288BF19601A4B1A689142B0
S214085100626888BF196022F003029542A2EB050385
S21408511001D80F2B04DC304600F0C4F90024B7E6AB
S21408512045F0010243F00103254462603046BD6045
S21408513008346B6000F0B6F9204603B0BDE8F08F7F
S214085140142869D9542800F29880280B6E3041003C
S214085150B2E600BF94050720848D0720888D0720B7
S214085160808D07207C8D0720A00907205A0A042A6C
S21408517055D9142A00F2A7805B324FEA420C07EB97
S2140851808C0CDCF80810DFF8B88161457FD04A68D7
S21408519022F00302934202D289688C45F7D1CA6886
S2140851A07B68E260A1609460CC60C7E645F00107C2
S2140851B042F001032544676030464D610D61C5F82D
S2140851C00CE0C5F808E06B60AA50083400F06AF9ED
S2140851D05EE64B68B2E609F1010919F0030F0CF117
S2140851E0080C7FF4BDAE2CE004F108036469A34202
S2140851F008BF02303FF475AE3AE61C461A445168BA
S214085200DB6854F8085F41F0010151603046EB60F6
S2140852109D6000F047F93BE65B3041004CE69A0992
S21408522038324FEA420CAAE7BC42454B3FF40DAF72
S2140852309C68626822F0030267E7D8F80080984501
S2140852407CD110F0030FA8F1080300F1FF30F4D169
S2140852507B6823EA04037B6064009C423FF6C9AE81
S214085260002C3FF4C6AE234248467FF475AE640071
S214085270234200F10400FAD06EE6B0F5AA7F18D8EB
S214085280E80B7730410017E64FF48051FAE6D8F875
S214085290043092104FF0010C0CFA02F21343C8F8CF
S2140852A004300A467DE70123C9F804304C4600223C
S2140852B02BE740F2545398421CD8A80C7C30410087
S2140852C0FAE51032B3E6542A23D81A0B6E324FEAA0
S2140852D0420C54E7BC68626822F0030215E7CBF379
S2140852E00B0000287FF4B8AE4244BB6842F00102C7
S2140852F05A60FCE6FC217E20DEE501224FF0000A1B
S214085300D3E604F108013046FFF760FADAF8001031
S214085310EDE6B2F5AA7F04D8DA0B77324FEA420CEC
S2140853202DE740F254518A4204D89A0C7C324FEA50
S214085330420C24E74FF0FC0C7E2220E77B688BE7C4
S21408534094050720830770B4C9B240D0541E002ABB
S2140853503FD003788B4218BF431C05D11CE0ECB144
S2140853600278013C8A4217D013F0030F184603F15F
S2140853700103F4D1032C14D884B103788B420BD0E4
S2140853800519431C02E002788A4205D0AB4218464B
S21408539003F10103F7D1002070BC7047204670BCAB
S2140853A07047024641EA012646EA06461368104652
S2140853B07340A3F1013525EA030313F0803F02F199
S2140853C00402D9D1043C032C1046EFD8D4E714467F
S2140853D0D0E71046E0E700BF8842F0B50DD98B1835
S2140853E098420AD28118002A54D09A1A13F8014D06
S2140853F0934201F8014DF9D1F0BD0F2A48D940EA89
S21408540001039B0747D1154600F1100401F110036C
S21408541053F8106C103D44F8106C53F80C6C0F2DB4
S21408542044F80C6C53F8086C04F1100444F8186C33
S21408543053F8046C03F1100344F8146CE8D8A2F18E
S214085440100323F00F0302F00F0E1033BEF1030F04
S2140854501944034421D90E4674461D1F56F8047B8A
S214085460043C032C45F8047FF8D8AEF1040424F075
S214085470030404342344214402F0030252B1013BDE
S2140854800A4411F8014B914203F8014FF9D1F0BDD7
S2140854900346F3E7F0BD0346F1E77246EEE700BFC2
S2140854A0704700BF704700BF2DE9F04F174683B01E
S2140854B00D46002900F0E280814607F10B04FFF74D
S2140854C0EFFF55F8043C162C23F00306A5F1080850
S2140854D04BD810221446A7424CD8964251DADFF829
S2140854E0A4B308EB0601DBF80800884200F0D38076
S2140854F0486820F0010E8E44DEF804E01EF0010F26
S21408550054D120F003003044904280F2BD80DB077F
S21408551000F1908055F8083CC3EB080ADAF8043026
S21408552023F0030300EB030E964549DB5746CB688A
S2140855308968321FCB60996057F8081FDAF80C3074
S214085540242ACB60996000F23381132A40F2FA804D
S2140855502B681B2ACAF808306B68CAF80C3000F2A9
S2140855603B8108350AF11003EDE024F00704002C0F
S2140855702246B0DA0C230020C9F8003003B0BDE894
S214085580F08F2F46321B0F2A03F0010340D833430F
S214085590C8F804304644736843F00103736048460D
S2140855A0FFF780FF384603B0BDE8F08FD90741D42F
S2140855B055F8083CC3EB080ADAF8043023F003036E
S2140855C03344934236DB5746DAF80C1057F8080F80
S2140855D0321F242AC160886000F2F580132A40F240
S2140855E0F08029681B2ACAF808106968CAF80C10DF
S2140855F000F2078108350AF1100229681E46116074
S2140856006968D0465160AB689360DAF80430B9E749
S21408561008EB0401234342F00100C8F804300A44AA
S21408562048605368083143F0010353604846FFF763
S214085630CDF8B4E739464846FFF7FEFB074600288C
S214085640ADD055F8043CA0F1080123F0010242440D
S214085650914200F0A680321F242A00F29380132A73
S21408566065D803462A4611681960516859609268D9
S2140856709A6029464846FFF7A9F890E7114603B00E
S214085680BDE8F04FFFF7D8BBCA6889682F46CA60DE
S2140856900646916076E7416804F1100021F00301A0
S2140856A0314481425ADADB07C4D455F8083CC3EBC8
S2140856B0080ADAF8043023F0030301EB030C60450C
S2140856C03FF77EAF5746DAF80C3057F8081F321FF8
S2140856D0242ACB60996000F2B680132A40F2A7808D
S2140856E02B681B2ACAF808306B68CAF80C3000F218
S2140856F0B38008350AF110032A681A606A685A6087
S214085700AA689A60C4EB0C030AEB040243F0010390
S214085710CBF808205360DAF80430484603F0010353
S2140857201C43CAF80440FFF7BDFE38463BE72B6823
S2140857301B2A03606B68436028D800F1080305F14C
S214085740080290E73B462A6876461A606A68D0469A
S2140857505A60AA689A60DAF8043013E70B1B08EB5D
S214085760040243F00103CBF80820536055F8043CC4
S214085770484603F001031C4345F8044CFFF792FE25
S214085780284610E72946FFF727FE72E7AB68242A63
S2140857908360EB68C3602BD000F1100305F110029C
S2140857A061E750F8042C2F4622F003021644E9E677
S2140857B0294638467646D046FFF70EFEDAF8043015
S2140857C0E0E63A4619E7294638461E46D046FFF729
S2140857D003FEDAF80430D5E6AB68242ACAF8103097
S2140857E0EB68CAF8143018D010350AF11803AAE77F
S2140857F02A6900F118030261696905F11802416116
S21408580031E7A968242ACAF81010E968CAF81410FB
S2140858100FD010350AF11802EFE62A690AF12003BC
S214085820CAF818206A691835CAF81C208BE73B4660
S21408583062E729690AF12002CAF81810696918355A
S214085840CAF81C10D9E629463846CDF804C0FFF732
S214085850C3FDDDF804C055E7AB68242ACAF8103043
S214085860EB68CAF8143003D010350AF1180343E77A
S2140858702A690AF12003CAF818206A691835CAF88E
S2140858801C2039E794050720838903F00903092BB0
S21408589001D000207047FEF731BE00BFF8B50C46B1
S2140858A0054610B1836B002B45D0A3899AB297049E
S2140858B007D4626E43F4005322F400526266A38152
S2140858C09AB200219606616032D4500721D5216B22
